:020000040800F2
:10000000C8150020350200081736000861320008C4
:1000100015360008CF1D0008A938000800000000B0
:100020000000000000000000000000001B36000877
:10003000D11D000800000000193600081D36000818
:100040004F0200084F0200084F0200084F0200084C
:100050004F0200084F0200084F0200084F0200083C
:100060004F0200084F0200084F0200084F0200082C
:100070004F0200084F0200084F0200084F0200081C
:100080004F0200084F0200084F0200084F0200080C
:100090004F0200084F0200084F0200084F020008FC
:1000A0004F0200084F0200084F0200084F020008EC
:1000B0004F0200084F0200084F0200084F020008DC
:1000C0004F0200084F0200084F0200084F020008CC
:1000D0004F020008913800089D3800084F020008C0
:1000E0004F0200084F0200084F02000800F002F81B
:1000F00000F090F80AA090E8000C82448344AAF132
:100100000107DA4501D100F085F8AFF2090EBAE82F
:100110000F0013F0010F18BFFB1A43F0010318473B
:100120003459000054590000103A24BF78C878C1EF
:10013000FAD8520724BF30C830C144BF04680C60ED
:10014000704700000023002400250026103A28BF35
:1001500078C1FBD8520728BF30C148BF0B60704739
:100160006E2900F0C883702900F05D81662904F0D3
:100170005586652904F05286672904F04F86612967
:1001800004F04E8603681B0A28BF41F080016929EC
:1001900000F0CE80642900F0CB80752900F0C88083
:1001A0006F2900F0A084782900F02981E92900F066
:1001B0003B84E42900F03884F52900F03584EF29E8
:1001C00000F09D84F82900F028810368DB0928BF2E
:1001D00041F08001632901F0B780732901F0BC80F0
:1001E000E32901F0C780F32901F0CC80002070479B
:1001F0001FB501F019F904000020002104F01EFCD5
:10020000401C60600020002104F002FCE0601FBD83
:1002100010B510BD01F0DAF81146FFF7E9FF04F060
:100220009DF801F0B7F903B4FFF7F2FF03BC01F04A
:10023000FFF900000948804709480047FEE7FEE74C
:10024000FEE7FEE7FEE7FEE7FEE7FEE7FEE7FEE786
:1002500004480549054A064B704700007F360008F0
:10026000ED000008C80B0020C8150020C80D0020B4
:10027000C80D00207CB51D4616460C00009001D02C
:100280002044401E074B7B442A4669460190304675
:1002900000F04BFB05461CB10020694600F058FBFE
:1002A00028467CBDD10600000FB47CB50C0009AA1D
:1002B000009001D02044401E084B7B4469460190C9
:1002C000089800F032FB05461CB10020694600F09A
:1002D0003FFB28467CBC5DF814FB00009D06000037
:1002E00070B5044685690068C10601D5302600E076
:1002F0002026C00707D070BDD4E9012130469047C1
:10030000206A401C20626D1EF6D570BD70B5044693
:1003100085690078C00707D170BDD4E9012120208C
:100320009047206A401C20626D1EF6D570BD00000B
:100330002DE9F0410646002410687529314616A5BE
:1003400010D000F044FA002802DA404213A507E07A
:1003500031688A0701D512A502E0490704D511A525
:10036000012401E000F03CFA00210A2206F12407F2
:1003700009E0B0FBF2FCB0FBF2F302FB1C003030F2
:1003800078541846491C0028F3D123462A463046A3
:10039000BDE8F04100F056BA000000002D0000005A
:1003A0002B00000020000000F0B40D460188090574
:1003B00002D5214C7C4402E01F4C7C440E340021C9
:1003C00000F1240608E002F00F071209E75D42EA97
:1003D00003721B097754491C52EA0307F3D10278D0
:1003E0000023120704D5702D06D009B10223113461
:1003F0002246F0BC00F026BA01231034F8E770B5AD
:1004000004460D462146106800F0EAF902462946E6
:100410002046BDE870400023C6E7D21D22F0070346
:10042000D3E90023C0E70368126843F020030360A8
:100430000823C3610023B7E7FA5400002DE9F05FF9
:10044000894604464FF0000ADFF874B1FB44C0F857
:1004500020A02046E1688847002874D0252806D0CF
:10046000D4E901219047206A401C2062F1E7002670
:100470005F462046E16888472028054607DB312D86
:1004800005D2781910F8200C08B10643F1E7B0073F
:1004900001D526F00406C4F81CA00027C4F818A053
:1004A0002A2D09D0284603F024FA38B304EB870834
:1004B000303DC8F8185019E059F8041B204604EBE9
:1004C00087029161E1688847012F054618D1E069EC
:1004D000002820DA26F020061DE0D8F8180000EBEE
:1004E000800005EB40003038C8F818002046E1686D
:1004F0008847054603F0FDF90028EED1012F0AD008
:100500002E2D08D12046E16888477F1C0546022F22
:1005100046F02006C4DBA069002803DA404246F01A
:100520000106A061F00701D026F010066C2D0BD05B
:10053000682D09D04C2D39D06A2D35D0742D35D089
:100540007A2D33D016E038E0E1682F462046884700
:10055000B842054609D16C2F26D04FF48060E1687F
:10056000064320468847054604E06C2F1AD04FF416
:10057000807006430DB3A5F14100192802D820353B
:1005800046F400664A462946204626604E46FFF756
:10059000E7FD80B101280BD0F61D26F0070000F121
:1005A000080956E74020E4E78020D8E70020D6E796
:1005B00006F104094DE7284652E7206ABDE8F09F9E
:1005C0008A540000032A40F2308010F0030C00F03F
:1005D000158011F8013BBCF1020F624498BF11F87D
:1005E00001CB00F8013B38BF11F8013BA2F1040236
:1005F00098BF00F801CB38BF00F8013B11F00303AE
:1006000000F06780083AC0F0088051F8043B083ACF
:1006100051F804CBA0E80810F5E7121D5CBF51F8B3
:10062000043B40F8043BAFF30080D20724BF11F82D
:10063000013B11F801CB48BF11F8012B24BF00F892
:10064000013B00F801CB48BF00F8012B7047431A6B
:1006500028BF9A427FF6B6AF032A1044114440F2F5
:10066000268010F0030F1EBF11F8013D521E00F846
:10067000013D10F0030F7FF4F6AF11F0030300F01B
:100680005C82083AC0F00B8051F8043D083A51F8FA
:1006900004CD40F8043D40F804CDFFF7F3BF121D30
:1006A0005CBF51F8043D40F8043DAFF30080D20731
:1006B00024BF11F8013D11F801CD48BF11F8012CFC
:1006C00024BF00F8013D00F801CD48BF00F8012C1F
:1006D000704710B5203AC0F00B80B1E81850203AAE
:1006E000A0E81850B1E81850A0E81850BFF4F5AFD2
:1006F0005FEA027C24BFB1E81850A0E8185044BF5C
:1007000018C918C0BDE810405FEA827C24BF51F8C8
:10071000043B40F8043B08BF7047D20728BF31F8BC
:10072000023B48BF11F8012B28BF20F8023B48BF0D
:1007300000F8012B70474FF000020429C0F012802E
:1007400010F0030C00F01B80CCF1040CBCF1020F84
:1007500018BF00F8012BA8BF20F8022BA1EB0C0159
:1007600000F00DB85FEAC17C24BF00F8012B00F84F
:10077000012B48BF00F8012B70474FF0000200B575
:10078000134694469646203922BFA0E80C50A0E8B4
:100790000C50B1F12001BFF4F7AF090728BFA0E862
:1007A0000C5048BF0CC05DF804EB890028BF40F82E
:1007B000042B08BF704748BF20F8022B11F0804F70
:1007C00018BF00F8012B70477047704770470968E1
:1007D0004A0501D540B27047C905FCD500B2704743
:1007E00009684A0501D5C0B27047C905FCD580B279
:1007F000704770B50C460546012A05D0287880065A
:1008000000D5EA69002302E0012305E05B1C934266
:1008100002D2E05C0028F9D1A869E618C01AA861E4
:10082000286A184428622846FFF75AFD04E0D5E9F3
:10083000012114F8010B9047B442F8D32846FFF782
:1008400065FD70BD2DE9F0470D4699469246044678
:1008500000F124080168880604D5E06921F0100140
:10086000216000E00120A84201DD471B00E00027D5
:10087000A1697A1902EB0900081AA0612078C00664
:1008800002D42046FFF72CFD002608E0D4E9012120
:100890001AF806009047206A401C761C20624E45DC
:1008A000F4DB2078C0060AD52046FFF719FD06E0E4
:1008B000D4E9012130209047206A401C2062381E74
:1008C000A7F10107F4DC07E0D4E9012118F80500DD
:1008D0009047206A401C2062281EA5F10105F3DC28
:1008E0002046FFF713FD2078000602D50220BDE860
:1008F000F0870120FBE711680268006A530501D503
:1009000008700AE0D30501D5088006E0130603D578
:10091000C217C1E9000200E0086001207047000032
:1009200001694A1C02610878704700B58FB0CDE9B3
:1009300001310021059105497944CDE903101146A3
:100940006846FFF77BFD0FB000BD0000E5FFFFFF2D
:100950000A6802F8010B0A607047D1E900239A4245
:1009600002D2531C0B601070704700002DE9FF5F2E
:1009700015468A460446DFF8AC80F8440027D8E9DB
:1009800000103E46CDE9001010E03AF816106A4615
:1009900002A800F0FBFC411C07D02178890603D592
:1009A000E269391891420DD80744761C20788006F8
:1009B00002D5E069B84205DDAE42E6DB3AF8160042
:1009C0000028E2D1A069C01BA0612046FFF788FC87
:1009D000D8E90010CDE90010002017E03AF818100F
:1009E0006A4602A800F0D2FCB0F1FF3F81460BD06E
:1009F00000250DF1080B05E0D4E901211BF80500E5
:100A000090476D1C4D45F7D308F10100B042804678
:100A1000E4DB206A384420622046FFF777FCBDE81B
:100A2000FF9F00006E4F00002DE9F0418046D21D6F
:100A300022F007020025D2E90002F52915A614D0FC
:100A4000011E72F1000106DA0023D0EB030063EB14
:100A5000020211A608E0D8F800108B0701D50FA6F6
:100A600002E0490701D50EA601251146002408F130
:100A7000240704E000F08BF830323A55641C50EA49
:100A80000102F7D12B46324621464046BDE8F041EF
:100A9000FFF7D8BE000000002D0000002B00000072
:100AA0002000000030B4002100F1240408E002F02E
:100AB0000705D208303542EA4372DB086554491C09
:100AC00052EA0305F3D10468002310A2250707D5D5
:100AD000A40600D421B1C46901230DA2641EC4611F
:100AE00030BCFFF7AFBE10B5044621461068FFF7D3
:100AF00077FE02462046BDE810400023D2E7D21D13
:100B000022F00701D1E90023CCE70000000000003B
:100B100030000000431A28BF9A427FF6DAAD104435
:100B200010F0030F11441EBF11F8013D521E00F8D2
:100B3000013D10F0030F7FF4F6AF103AC0F00A80C9
:100B400010B531E91850103A20E91850BFF4F9AF48
:100B5000BDE81040530724BF31E9081020E9081010
:100B600044BF51F8043D40F8043D12F0030F08BFA4
:100B70007047D20728BF31F8023D48BF11F8012C59
:100B800028BF20F8023D48BF00F8012C704730B55F
:100B9000B0F10A024FEA900E71F100034EEA817E35
:100BA000B0EB0E0061EB91014FEA101E4EEA017EA0
:100BB00010EB0E0041EB11114FEA102E4EEA016EC0
:100BC00010EB0E0041EB11214FEA104E4EEA014EA0
:100BD00010EB0E0041EB1141401841F100014FEACA
:100BE000D00040EA41704FEAD10110EB80054FEA96
:100BF000810444EA907444EB01046D1944EB04044D
:100C0000521BA3414FF0000348BF0A3200D530BD4C
:100C1000401C41F1000130BD70472DE9FF4F0C46EB
:100C20001E464FF0FF378BB0D2E90001DDF860803F
:100C30000A908A46C1F30A5505B93D460021084687
:100C40004FF00000BAF1000F00F4400005DA00EBAD
:100C500080004FF4400101EA50004FEA9059B9F189
:100C6000010F00DDB9460A9850EA4A000ED044F65A
:100C70001050A5F2FF3545432F14B8F1000F1ED0D8
:100C80007542291E1EDDC9F100021CE0B8F1010FFA
:100C90004FF0000001D0302103E0F24305E0215481
:100CA000401CB042FBDB30460022002121540B994E
:100CB000C1F80880C1E900200FB0BDE8F08FBD1B6E
:100CC0006D1CDEE74A4600DA694206A800F0F0FB38
:100CD00006AB93E8070003AB83E8070050460A9988
:100CE00000F0ADFC8DE80700A0F500501F38009023
:100CF0000398002D0ADD42F21F014A4608440023F2
:100D000003A90390684600F016FF09E0A0F5005023
:100D10004A461F38002303A90390684600F020FFCD
:100D20008DE807000004000C03D04FF0FF304108AD
:100D300000E01046B8F1000F03D0002200921546E3
:100D40001EE0751E05D4FFF722FF303262556D1E7E
:100D5000F9D5B3460122084302D000227F1C04E0EB
:100D60002078302801D100227F1E002A099784D0E4
:100D70001DE0112D07DAFFF70AFF303262556D1CB6
:100D800050EA0102F5D1084302D00098C8B10EE044
:100D90000021681E05E0235C625C63542254401EFF
:100DA000491C8142F7DBAB46A81B401E099000207E
:100DB00004F80B000B98099AC0F80880C0E9002BD2
:100DC0007AE711264FF0000857E72DE9F04F8846E3
:100DD0000446D21D22F0070191B0D1E90001CDE90E
:100DE0000A0102F062FD02460B98C00F01D02D20CF
:100DF00007E02068810701D52B2002E0202101EACD
:100E0000C000032A099001D0072A05DB03464146AA
:100E1000204600F00DFB0BE12078800601D5E0694B
:100E200000E00620B8F1650F814606D0B8F1660FE4
:100E300018D0B8F1670F70D131E00020B9F1110F6F
:100E4000009001DB112301E009F101030AAA01A9C5
:100E50000CA8FFF7E2FEDDE90C70002609F10105A0
:100E6000834647E001204B4600904FF000470AAA16
:100E700001A90CA8FFF7D1FEDDE90DB00C995D4684
:100E8000002610B909F101000D18B9EB050003D4D3
:100E9000C0F1FF3609F10105A5EB09002BE0B9F11E
:100EA000010F01DA4FF001090020B9F1110F009094
:100EB000484601DD112300E003460AAA01A90CA857
:100EC000FFF7ABFEDDE90C704D4600268346207827
:100ED00000070AD4AB4500DA5D4601A8012D04DD08
:100EE000411911F8011C302907D04F4502DA17F1DA
:100EF000040F04DA012082460FE06D1EEEE7002F9A
:100F000002DCED1B3E4403E0781CA84200DD7D1CA2
:100F1000B81B00F1010A4FF000472078000703D406
:100F2000AA4501DB4FF0FF3A0021B7F1004F0DF168
:100F300043088DF8431024D002202B23002F01DA20
:100F40007F422D230A21021EA0F1010000DC5FB1C7
:100F500097FBF1FC97FBF1F201FB1C7C17460CF1AF
:100F6000300C08F801CDEEE7A8F1010003702188EC
:100F7000090501D5452100E06521A0F1010800F82F
:100F8000011C09980FA9A1EB0807FF1D00B1012062
:100F9000411901EBEA70A1693844081A401EA061AA
:100FA0002078C00602D42046FFF79AF9099828B1A4
:100FB000D4E901219047206A401C20622078C006B5
:100FC00022D52046FFF78CF91EE0002E04DBB34546
:100FD00002DD01A8805D00E03020D4E901219047C6
:100FE000206A401C2062761CAAF101005FEA000A18
:100FF0000AD100F019FAC0680168405CD4E9012107
:101000009047206A401C2062281EA5F10105DCDC07
:1010100007E0D4E9012118F8010B9047206A401C31
:101020002062381EA7F10107F3DC2046FFF76EF9B6
:10103000032011B041E600002DE9F04F04460D46B3
:10104000D21D22F0070089B0D0E900974846394602
:1010500002F02BFC0246F80F01D02D2307E0206898
:10106000810701D52B2302E0202101EAC0038DF87E
:1010700020300BB1012000E00020032A824601D07D
:10108000072A04DB2946204600F0D2F93FE1207808
:10109000800601D40D2500E0E569C7F30A560D2D41
:1010A00049DA00214FEA175B08464FF00000002F95
:1010B00000F4400007DA00EB80004FF4400100EB41
:1010C000D07001EA60008115012901DD4FF0FF3188
:1010D00000224FEA850CBCF1180F06D31346ACF181
:1010E00018004FF08052C24003E04FF4801323FAFF
:1010F0000CF30CF10C0CBCF1200F04D3ACF1200C60
:1011000009FA0CF001E007FA0CF000294FF0004852
:1011100001DD18B90FE00ED140450CD319EB0209DF
:101120005F4121B9404502D19F4329EA0209BBEB47
:10113000175F00D0761C2088000502D57B487844D4
:1011400002E07A487844193808AA302302F80A30B5
:10115000037C0AF10101002E0AF1020A53546A4687
:1011600002DC4FF0300101E04FF031014FF0010897
:101170008DF8001002D0A6F2FF3603E059EA4701CD
:1011800000D06B4E002D02DC2178090704D54FF00A
:1011900002082E218DF80110C44600210BE0C7F390
:1011A00003433F01C35C491C6D1E02F8083005294A
:1011B00008F1010801DA002DF1DC00210CE000EB60
:1011C0001973491C1B786D1E082902F808304FEA74
:1011D000091908F1010801DA002DF0DC21688B06FD
:1011E00002D516E0A8F10108E04505DD02EB080391
:1011F00013F8013C302BF5D0B8F1000F09DD02EBFC
:10120000080313F8013C2E2B03D1090701D4A8F1E0
:101210000108002D05DD3E2102F808106D1E08F1C1
:101220000108407C002E02F8080008F1010804DAE9
:101230002D20764202F8080002E02B2002F8080078
:101240000A214FF47A70864208F101080BDB96FB05
:10125000F0F3303302F8083096FBF0F308F10108A0
:1012600000FB136601E0642E0CDB642096FBF0F3B8
:10127000303302F8083096FBF0F308F1010800FB68
:10128000136601E00A2E06DB96FBF1F0303002F81F
:10129000080008F1010896FBF1F001FB1060303006
:1012A00002F80800A16908F1010808EB050202EB49
:1012B0000A00081AA0612078C00602D42046FFF771
:1012C0000FF8216A08AE01EB0A00206204E0D4E9BD
:1012D000012116F8010B9047BAF1010AF7D22078E4
:1012E000C00602D52046FEF7FBFF6E4609E016F861
:1012F000010B3E280FD0D4E901219047206A401C01
:101300002062B8F10108F2D22046FEF7FFFF09B0D3
:101310000320BDE8F08F206A2844206203E0D4E96E
:101320000121302090476D1EEBD3F8E7C547000040
:1013300002FCFFFF10B5436913B1AFF3008001E079
:10134000FFF757FA012010BD127800F124010A704E
:1013500000224A700122EDE711684FF0FF32E9E701
:1013600010B5436913B1AFF3008001E0FFF7FEFA57
:10137000012010BD128800F1240182840022C28461
:101380000122EDE711684FF0FF32E9E770B516462C
:101390000C46054600F040F8036893F80101012867
:1013A00006D0FF2C0FD8185D68B101202C7070BDDD
:1013B000D3F807013246214603F2071303442846B7
:1013C000BDE8704018474FF0FF3070BD754600F023
:1013D000EBF8AE4605006946534620F00700854607
:1013E00018B020B5FEF734FFBDE820404FF00006EE
:1013F0004FF000074FF000084FF0000B21F00701FD
:10140000AC46ACE8C009ACE8C009ACE8C009ACE83F
:10141000C0098D467047000010B500F005F8001DAA
:1014200010BD00BF1936000000487047880B00202F
:101430002DE9F0411F46044603260168072A01F4FE
:10144000006004DB08B116A505E016A503E008B1AD
:1014500015A500E015A521F010002060A069C01EB0
:10146000A0610FB1401EA0612046FEF739FF4FB1C9
:10147000D4E9012138469047206A401C2062C01CF4
:10148000206206E0206AFAE7D4E9012115F8010B91
:101490009047761EF8D22046FEF738FFBDE8F0816F
:1014A0004E414E006E616E00494E4600696E660008
:1014B0002DE9F047814616468AB0354878440DC874
:1014C0008DE80D0032487844801C03AC0DC884E8D8
:1014D0000D0041F69B300844372190FBF1F290FB60
:1014E000F1F5A5F1800501FB12041B3C02D5644215
:1014F000012000E00020DFF898A080460027FA4491
:10150000AAF1BE0A0EE0E0070AD03246684607EBB1
:10151000470101230AEB810100F022FB8DE807005F
:1015200064107F1C002CEED1194F7F44AE3F19E0B0
:10153000E80715D007EB04100DF1180A90E80E002B
:101540008AE80E00C068F04201D19819089032462E
:10155000012306A903A800F003FB03AB83E80700FF
:101560006D10641C002DE3D14FF001033246694633
:10157000B8F1000F03A802D000F0DDFA01E000F09E
:10158000EFFAC9E90001C9F808200AB0BDE8F08700
:10159000D844000010B50446AFF300802046BDE8F3
:1015A0001040FEF740BE000000487047680B002066
:1015B0004FF0013C50F8042B51F8043B9A4221D1E2
:1015C000A2EB0C03934313EACC1317D150F8042B6E
:1015D00051F8043B9A4215D1A2EB0C03934313EA52
:1015E000CC130BD150F8042B51F8043B9A4209D18B
:1015F000A2EB0C03934313EACC13DBD04FF00000B3
:10160000704700BFD01A01BAB1FA81F101F0180198
:1016100022FA01F0CB40C1F12001DBB2C0B2C01A06
:101620002CFA01F3D11A914311EAC311E6D17047A4
:1016300001491820ABBEFEE72600020070475FEAB2
:10164000400C08BF91F0000F4FEA8C234FEAC122F3
:1016500043EA51514FEA1C5018BF00F5F0404FEAE1
:10166000300018BF41F000415FEA6C5C00F0298057
:10167000BCF1FF3F08BF40F080407047130C06BF2D
:1016800012044FF0100C4FF0000C130E04BF1202A6
:101690000CF1080C130F04BF12010CF1040C930F92
:1016A00004BF92000CF1020CD30F04BF52000CF1E6
:1016B000010C11464FF00002A0F11F00A0EB0C003E
:1016C000704711F0004F08BF704731F000413FF400
:1016D000D5AF0B0C06BF09044FF0100C4FF0000CF7
:1016E0000B0E04BF09020CF1080C0B0F04BF09011B
:1016F0000CF1040C8B0F04BF89000CF1020CCB0F12
:1017000004BF49000CF1010CCCF12003A0EB0C004C
:1017100022FA03F302FA0CF241EA030100F101009C
:10172000704720F07F4C80EA030023F07F47ACEB4A
:10173000070303F57C5300F0004003F1FF032DE99C
:1017400080494FEA154B09B44FEA144325EA0B4E82
:1017500024EA03480FF2042606EB132749083E78D3
:101760005FEA320203FB0667C7F5000707FB06F6D0
:101770004FEA54374FEAD64606F1020607FB066CDD
:10178000CCF1005C4FEA1C472CEA074C07FB06F43F
:101790000CFB06F504EB15464FEA961634BF002005
:1017A0004FF000404FEAD13706FB07FC4FEA1C4CD4
:1017B0000CFB0BF7D21B03FB0CF761EB07010CFBD7
:1017C0000EF7B0EB074072EB17420CFB08F734BF83
:1017D000A2EB0742B2EB074261EB17414FEA0C4420
:1017E0004FEA910706FB07FC4FEA1C4C0CFB0BF77A
:1017F000B0EBC74072EB573203FB0CF734BFA2EBE0
:10180000C742B2EBC74261EB57310CFB0EF7B0EBAE
:10181000C70072EB57720CFB08F734BFA2EBC7028C
:10182000B2EBC70261EB5771039F4FEA816141EA56
:10183000921104EBCC044FEAD1374FEA826206FBE7
:1018400007FC42EA90124FEA80604FEA1C4C0CFB06
:101850000BF7D21B03FB0CF761EB07010CFB0EF738
:10186000B0EB074072EB17420CFB08F734BFA2EB5A
:101870000742B2EB074261EB17414FEA8C554FEA42
:10188000910704EB9C2406FB07FC4FEA1C4C0CFB65
:101890000BF7B0EBC74072EB573203FB0CF734BFCA
:1018A000A2EBC742B2EBC74261EB57310CFB0EF71C
:1018B000B0EBC70072EB57720CFB08F734BFA2EB1A
:1018C000C702B2EBC70261EB577115EB4C254FEA2B
:1018D000816141EA92114FEA82624FEAD13742EACE
:1018E000901206FB07FC44F100044FEA80604FEAC7
:1018F0001C4C0CFB0BF7D21B03FB0CF761EB070135
:101900000CFB0EF7B0EB074072EB17420CFB08F72D
:1019100034BFA2EB0742B2EB074261EB174115EB74
:101920001C154FEA813141EA92414FEA823242EA84
:1019300090424FEA80304FEA0C7644F1000448EAC6
:1019400003434EEA0B484FF0000EB2EB080C71EB6C
:10195000030724BF624639464EEB0E0E4FF0000BD4
:101960000018524149414BEB0B0BB2EB080C71EBE9
:1019700003077BF1000B24BF624639464EEB0E0E87
:101980004FF0000B0018524149414BEB0B0BB2EBEF
:10199000080C71EB03077BF1000B24BF624639464C
:1019A0004EEB0E0E51EA020718BF46F0010616EB89
:1019B0000E7655F1000254F1000103D5BDE889010E
:1019C000BDE80088BDE88901BDE80048B61952416C
:1019D00041EB0101A3F10103704780807F7E7D7C94
:1019E0007B7A7978777676757473727171706F6EB1
:1019F0006E6D6C6C6B6A6A6968686766666564645C
:101A0000636362616160605F5F5E5E5D5D5C5C5BE5
:101A10005B5A5A5959585857575656555555545454
:101A2000535352525251515050504F4F4F4E4E4DB2
:101A30004D4D4C4C4C4B4B4B4A4A4A4949494848FE
:101A4000484747474746464645454544444444433E
:101A500043434342424242414141002B9C4630D4E1
:101A600077002BD01CB54FEA370703B44FF01000B6
:101A70004FF01001BAF1000F06D0BCF1000FDCBF2F
:101A800040F0080040F008014FF000000FBCBDE836
:101A900010400BF1010BBBF1010F08BF5FEA170704
:101AA00022BF12F1010211F101014FF0004143F197
:101AB000000300F0004043EA00007047F9D35708E4
:101AC000D0E746EA064613F1400F4FEA16461FDDFF
:101AD00013F1200FDFBF16430A46002120335B427B
:101AE000BED0C3F1200746EA064602FA07F74FEADE
:101AF000164646EA0706C3F1200722FA03F201FA66
:101B000007F721FA03F14FF0000342EA0702A7E7C3
:101B100046EA020646EA06464FEA164646EA010645
:101B2000BCBF46EA0646360C4FF000034FF00002F9
:101B30004FF0000194E72DE9804C9A46934670B42B
:101B400091E8380007C831EA400C48BF34EA430C3A
:101B500003D5FFF7E6FDFFF780FFF0BCBDE8008C82
:101B60002DE9804C9A46934670B491E8380007C836
:101B700010F0804F08BF13F0804F03D100F005F83C
:101B8000FFF76BFFF0BCBDE8008C20F07F4780EAD8
:101B9000030023F07F4C07EB0C03A3F57C5300F00C
:101BA0000040A3F1FE0392F0000F00F0B38095F027
:101BB000000F00F077802DE901494FEA11404FEA0C
:101BC000144621EA004800FB06FC24EA064708FB0D
:101BD00006F607FB08F800FB07F718EB06484CEB86
:101BE000164C4FEA124B18EB07484FEA15464CEBE0
:101BF000174022EA0B4E0BFB06FC25EA06470EFBBC
:101C000006F607FB0EFE0BFB07F71EEB064E4CEB32
:101C1000164C4FF000061EEB074E4CEB174B18EB23
:101C20000B0840F1000018EB0E0B58EB000840F1D8
:101C300000008F1A4FF000013CBFC943661B14BF60
:101C4000B5EB040C00213CBFC943F61B4FEA174417
:101C50004EEA8E0E27EA04454FEA1C4704FB076252
:101C60002CEA074C05FB07F70CFB05F604FB0CFC04
:101C700016EB074642EB174216EB0C4642EB1C42B2
:101C80001BEB060658EB0202414146EA9E0601D5CF
:101C9000BDE80189B619524141EB0101A3F10103ED
:101CA000BDE801894FEA14454FEA114724EA054689
:101CB00021EA074C05FB07F406FB07F70CFB06F1CE
:101CC00005FB0CFC11EB074144EB17444FEA1247AC
:101CD00011EB0C4144EB1C4422EA074C05FB07F2D4
:101CE00006FB07F70CFB06F605FB0CFC16EB07469C
:101CF00042EB174216EB0C4642EB1C456A1854F1B6
:101D0000000148BF7047B619524141EB0101A3F1F0
:101D10000103704795F0000F37D04FEA11424FEAA8
:101D2000144721EA024624EA074C02FB07F106FBAE
:101D300007F70CFB06F402FB0CFC14EB074441EB29
:101D400017414FEA154714EB0C4441EB1C4125EABF
:101D5000074C02FB07F506FB07F70CFB06F602FB38
:101D60000CFC16EB074645EB174516EB0C4645EB0E
:101D70001C42121951F1000148BF7047B619524177
:101D800041EB0101A3F1010370474FEA14454FEA0B
:101D9000114724EA054621EA074C05FB07F106FB3B
:101DA00007F70CFB06F24FF0000605FB0CFC12EBEC
:101DB000074241EB174112EB0C4251EB1C4148BF6B
:101DC0007047921841EB0101A3F101037047FEE750
:101DD000704772B6FEE710B590F821100022022974
:101DE00005D00421816380F82020012010BD016806
:101DF0000B6823F00E030B6001680B6823F00103EE
:101E00000B6090F84030C46B012101FA03F363606A
:101E100080F8211080F82020104610BD10B590F8F1
:101E200021100024022903D00421816301243DE014
:101E300001680A6822F00E020A6001680A6822F04E
:101E400001020A601A4A0168914201D1012121E090
:101E5000174A1432914201D110211BE0144A283252
:101E6000914201D1891515E0114A3C32914201D1CC
:101E700089140FE00E4A5032914202D14FF4803162
:101E800008E00B4A6432914202D14FF4801101E024
:101E90004FF08071064A083A5160012180F8211004
:101EA000002180F82010416B01B18847204610BD09
:101EB00008000240806B70472DE9F04300233E4F3D
:101EC0000F2573E001229A400A406DD023F00304ED
:101ED000E619D6F808809C074FEA147C05FA0CF93D
:101EE00009EA0804DFF8D480404502D14FF0000829
:101EF00016E0DFF8CC80404502D14FF001080FE03A
:101F0000DFF8C080404502D14FF0020808E0DFF85A
:101F1000B880404502D14FF0030801E04FF00408BB
:101F200008FA0CF8A04522D1284CD4F800C02CEABD
:101F3000020CC4F800C0241DD4F800C02CEA020C26
:101F4000C4F800C0214C0C34D4F800C02CEA020CB8
:101F5000C4F800C0241FD4F800C02CEA020CC4F856
:101F600000C0D6F808C02CEA090CC6F808C0FF2A41
:101F700001D8064601E000F104064FEA830401D9C6
:101F8000A4F12004D6F800C005FA04F82CEA080CE5
:101F90004FF0040808FA04F84CEA080CC6F800C030
:101FA000C46824EA0204C46003F1010331FA03F2B5
:101FB00088D1BDE8F0830000000001400008014026
:101FC000000C0140001001400014014000040140D9
:101FD0002DE9F84FDFF8B8910024A9F1040B23464E
:101FE0000F2709F1040AABF1040EC9E00125A54051
:101FF0002A40AA427DD1674ED1F804C0ACEB060856
:10200000B44532D014DCBCF1030F3AD009DCBCF18A
:10201000000F2AD0BCF1010F1CD0BCF1020F31D14E
:102020001DE0BCF1110F17D0BCF1120F2AD119E03D
:10203000B8F5881F19D006DCB8F5803F15D0B8F583
:10204000801F1FD111E0B8F5001F0ED0B8F5041F96
:1020500018D10AE0CB6815E0CB681B1D12E0CB68F5
:1020600008330FE0CB680C330CE08B682BB1012BED
:102070004FF0080303D0456104E0042302E005614A
:1020800000E00023FF2A01D8064601E000F1040623
:102090004FEA840501D9A5F12005D6F8008007FA9A
:1020A00005FC28EA0C0803FA05F548EA0508C6F815
:1020B00000804D68ED0062D5374DAE6946F00106EF
:1020C000AE61AD6924F0030605F001050095334DBE
:1020D00006EB050CDCF80850A607360F07FA06F8E1
:1020E00025EA0805DFF8B880404503D14FF0000825
:1020F00017E044E0DFF8AC80404502D14FF0010822
:102100000FE0DFF8A480404502D14FF0020808E05C
:10211000DFF89880404502D14FF0030801E04FF00E
:10212000040808FA06F848EA0508CCF808804D6863
:10213000D9F80060ED024D4601D5164300E0964304
:102140002E604D68DAF80060AD02554601D51643A1
:1021500000E096432E604D68DBF80060AD035D46FD
:1021600001D5164300E096432E604D68DEF800600E
:10217000ED03754601D5164300E096432E60641CBE
:102180000D682A46E5407FF431AFBDE8F88F0000C6
:10219000080401400000111000100240000001403E
:1021A00000080140000C01400010014000140140F3
:1021B0008068084000D0012070470AB10161704773
:1021C0000904FBE701488068704700000000002018
:1021D00010B5040013D0242084F83D002068016865
:1021E00021F001010160204600F01CFA002020646B
:1021F00084F83D0044F8300FA073207310BD012017
:1022000010BD000070B5040025D094F83D000025F5
:1022100020B984F83C50204600F020FA242084F8AD
:102220003D002068016821F001010160206801681B
:1022300041F4004101602068016821F4004101601F
:1022400000F068FB4D4A6168914201D84C4900E0BA
:102250004C49884201D2012070BD4B492368B0FB34
:10226000F1F15E6826F03F060E435E6063689342BC
:1022700006D94FF4967359434FF47A73B1FBF3F1D7
:102280002368491C1E6A26F03F06314319626168C3
:10229000914210D84900401EB0FBF1F2521CC2F32B
:1022A0000B02042A01D2042022E0B0FBF1F0401C12
:1022B000C0F30B001CE0A268F2B301EBC10303EB17
:1022C0000116431EB3FBF6F35B1C43F480431B056E
:1022D00049D092B301EBC10202EB0111401EB0FBE9
:1022E000F1F0401CC0F30B0040F4804040F400408B
:1022F0002168CA694CF6FF739A431043C861D4E958
:10230000071001432068026822F0C00211430160F7
:10231000D4E9030101432068826848F2FF339A43FD
:1023200011438160D4E9050108432168CA6822F09D
:10233000FF021043C86001E00EE016E0206801686B
:1023400041F0010101602564202084F83D002563EF
:1023500084F83E50002070BD01EB4106431EB3FBE4
:10236000F6F35B1CB3E70120C2E701EB4101401E1D
:10237000B0FBF1F0401CC0F30B00B7E7A0860100F2
:1023800080841E0000093D0040420F002DE9FF4FF0
:1023900081B089460446FFF715FF054694F83D00D5
:1023A0004FF0000820287DD11923012250492046F2
:1023B000009500F0E7FF002874D194F83C00012854
:1023C00070D0012084F83C0020680168C90703D15F
:1023D000016841F0010101602068016821F4006199
:1023E0000160242084F83D00002626644148E06214
:1023F0004FF0011B20272068016841F480710160C3
:102400000095002259462046049B00F0BBFF50B1C6
:1024100020680068C00502D54FF4007020640320D6
:1024200005B0BDE8F08F216809F0FE000861FFF7F4
:10243000C9FE2168054648694969C0F34000C1F3F7
:1024400080214FF0A00A0FE0FFF7BCFE411B04986B
:10245000814200D808B984F83DA0216848694969DB
:10246000C0F34000C1F3802194F83D20A02A02D09F
:1024700008B90029E8D084F83D7020684169C94353
:10248000890716D4016841F4007101602068416930
:1024900080691923012216492046009500F072FF39
:1024A000B8B900E021E084F83D7084F83C60002079
:1024B000B6E7016841F40071016021686FF4806043
:1024C0004861192301220A492046009500F05AFF6D
:1024D00008B10120A4E7039808F1010880458AD3D8
:1024E00084F83D7084F83C60F3E7022098E7000030
:1024F000020010000000FFFF2DE9F84F1F46904634
:102500008A460446DDF82890FFF75CFE054694F8FD
:102510003D0020287FD11923012240492046009503
:1025200000F030FF002876D194F83C00012872D0EA
:10253000012084F83C0020680168C90703D10168C4
:1025400041F0010101602068016821F4006101602F
:10255000212084F83D00102084F83E0000262664E7
:10256000C4F824806785608D20852D48E0622B4665
:102570004A465146204600F08BFE90B920684169DA
:102580008069009036E02A464946204600F0A0FFC8
:1025900050B1206C042804D12068016841F4007116
:1025A00001600120BDE8F88F606A21680078086149
:1025B000606A401C6062618D491E6185218D491EE3
:1025C00089B2218522685369DB435B070BD451B183
:1025D00000781061606A401C6062608D401E6085FA
:1025E000208D401E20852A464946204600F09EFE4A
:1025F0000028CED1208D0028C5D154F83D0B0168AC
:1026000041F400710160202004F81E09E677667726
:102610000020C7E7FFE70220C4E700000200100027
:102620000000FFFF10B50068094988420FD1094832
:10263000C16921F40011C161074C40212046FFF718
:102640003BFC2046BDE810408021FFF735BC10BDA3
:102650000054004000100240000C014010B586B04C
:102660000021009101910291039100680F49884275
:102670001AD10F4CA06940F00800A061A06969461A
:1026800000F008000490C020009012200190032068
:1026900003900848FFF79CFCE06940F40010E061FB
:1026A000E06900F40010049006B010BD0054004032
:1026B00000100240000C0140024881680278114479
:1026C0008160704700000020074810B5016841F0A4
:1026D00010010160032000F075F80F2000F006F8EB
:1026E00000F024F8002010BD0020024070B50D4D10
:1026F00004464FF47A712878B1FBF0F00A49096872
:10270000B1FBF0F000F0DCFA48B9102C07D200223F
:102710002146501E00F036F800206C6070BD01208C
:1027200070BD0000000000200C0000200C4808B51F
:10273000816941F001018161816901F0010100912C
:10274000C16941F08051C161C06900F080500090C2
:102750000448416821F0E06141F00071416008BD2A
:102760000010024000000140002809DB00F01F02B9
:10277000012191404009800000F1E020C0F80011E3
:1027800070470000F0B40E4B1B680C46C3F30223E5
:10279000C3F10705042D00D90425191D072901D20D
:1027A000002300E0DB1E012606FA05F1491E214048
:1027B00099409E40761E16403143F0BC01F089B826
:1027C0000CED00E0064900F0070208684FF6FF0331
:1027D000184040EA0220034A104308607047000096
:1027E0000CED00E00000FA052DE9F0470F4605006A
:1027F00061D0434E306800F00700B84209D230681B
:1028000020F0070038433060306800F00700B8421D
:1028100051D128683B4C810712D5400703D5606829
:1028200040F4E06060602878000703D5606840F4F9
:10283000605060606068A96820F0F0000843606044
:102840002878C00728D06868012810D0216802289D
:1028500010D0890700292EDA616821F003010143B5
:102860006160FFF7AFFC804641F288390DE02168D6
:102870008903EFE78901EDE7FFF7A4FCA0EB08016E
:10288000494502D90320BDE8F0876068696800F017
:102890000C00B0EB810FEFD1306800F00700B842B8
:1028A0000BD9306820F0070038433060306800F002
:1028B0000700B84201D00120E5E72878400705D598
:1028C0006068E96820F4E0600843606028780007E9
:1028D00006D56068296920F4605040EAC100606054
:1028E00000F038F86168084AC1F30311515CC84030
:1028F0000649086006480068FFF7F8FE0020C2E7B6
:102900000020024000100240364E00080C0000205B
:10291000040000200448054900684968044AC1F3DE
:102920000221515CC84070470C000020001002409A
:10293000464E00080448054900684968044AC1F346
:10294000C221515CC84070470C00002000100240BA
:10295000464E00080E4A51680E4801F00C03042B45
:1029600011D0082B0FD10C48C1F38343C903C05CBD
:102970000AD55168084AC1F34041921E515C054A8C
:102980005043B0FBF1F070470449484370470000E2
:102990000010024000127A00264E000800093D0097
:1029A0002DE9F84F040070D02078C04DC00749D001
:1029B0006868C0F38100012807D06868C0F381000F
:1029C000022809D16868C00306D52868800339D574
:1029D00060680028E7D035E06068B0F5803F0BD034
:1029E00010B1B0F5A02F11D0286820F480302860F5
:1029F000286820F4802002E0286840F480302860B5
:102A0000606890B1FFF7DEFB06460AE0286840F4F4
:102A100080202860F0E700BFFFF7D4FB801B64280C
:102A200073D828688003F7D50CE0FFF7CBFB064688
:102A300005E000BFFFF7C6FB801B6428F0D82868BC
:102A40008003F7D420789A4E80074FF001094FF0A9
:102A5000000839D5686810F00C0F07D06868C0F31B
:102A60008100022809D16868C00306D4286880075D
:102A700014D52069012808D110E02069B0B1C6F84A
:102A80000090FFF79FFB074605E00AE1FFF79AFB7E
:102A9000C01B0228C4D828688007F7D52868616958
:102AA00020F0F80040EAC10028600DE0C6F8008080
:102AB000FFF788FB074604E0FFF784FBC01B0228F2
:102AC00023D828688007F7D4207800072CD57948C8
:102AD000A169D9B1C0F80090FFF774FB074604E084
:102AE000FFF770FBC01B02280FD8686A8007F7D574
:102AF00071484FF4FA510068B0FBF1F0009000BF4C
:102B00000098411E0091FAD20EE080E0C0F80080EB
:102B1000FFF758FB074604E0FFF754FBC01B0228F1
:102B200075D8686A8007F7D42078400760D5E869CF
:102B30000027C00008D4E86940F08050E861E869E7
:102B4000012700F0805000905C480168C90513D44B
:102B50000168834641F480710160FFF733FB8246D0
:102B600006E000BFFFF72EFBA0EB0A0064284ED85A
:102B7000DBF80000C005F5D5E06801280AD008B1EF
:102B8000052813D0286A20F001002862286A20F066
:102B9000040002E0286A40F001002862E06841F287
:102BA000883B98B1FFF70EFB82460BE0286A40F0A5
:102BB00004002862EEE700BFFFF704FBA0EB0A0168
:102BC00059455AD8286A8007F6D50CE0FFF7FAFA7B
:102BD000824605E0FFF7F6FAA0EB0A0159454CD80A
:102BE000286A8007F6D41FB1E86920F08050E861B8
:102BF000E06988B36968C1F38101022944D00228E1
:102C0000C6F8608004D0FFF7DDFA044638E034E00F
:102C1000FFF7D8FA074604E0FFF7D4FAC01B0228F2
:102C20002BD828688001F7D4206AB0F5803F05D101
:102C30006868A16820F4003008436860D4E908019E
:102C40000843696821F4741108436860C6F860900D
:102C5000FFF7B8FA044606E025E000BFFFF7B2FA36
:102C6000001B022809D828688001F7D51BE000BFA7
:102C7000FFF7A8FA001B022802D90320BDE8F88F4D
:102C800028688001F4D40EE00128F7D06868226A31
:102C900000F48031914204D1616A00F470108842DE
:102CA00001D00120EAE70020E8E700000010024020
:102CB00000004242800442420C00002000700040AC
:102CC00010B5401EB0F1807F01D3012010BD4FF040
:102CD000E02460610F21601700F0FBFD0020A0617F
:102CE00007202061002010BD704770B504462068A1
:102CF0000C3050E8001F21F4907140E80012002AC7
:102D0000F5D12068143050E8001F21F0010140E89F
:102D10000012002AF5D1206B012809D120680C305F
:102D200050E8001F21F0100140E80012002AF5D100
:102D3000206840694FF00005400615D52068143022
:102D400050E8001F21F0400140E80012002AF5D1B0
:102D5000E06B48B14563E06BFFF73DF820B1E06BF5
:102D6000FFF7A8F8202806D0E585202084F8420047
:102D70002563002070BD10206064032070BD70B515
:102D8000044620680C3050E8001F21F0C00140E8E4
:102D90000012002AF5D1206840691546000615D5B5
:102DA0002068143050E8001F21F0800140E8001234
:102DB000002AF5D1A06B48B14563A06BFFF70BF873
:102DC00020B1A06BFFF776F8202805D0E5842020FD
:102DD00084F84100002070BD10206064032070BDA5
:102DE00010B501F0A9FA00280CDB00EB0011064831
:102DF00000EB4110D0F81412491CC0F81412012144
:102E000080F8121210BD00000C070020F8B5016810
:102E100004460868CA684B6910F00F0F4FF00005B0
:102E200059D003F0010602F49077374365D0C1070B
:102E300005D0D10503D5616C41F001016164410702
:102E400005D5D90703D0616C41F0020161648107A7
:102E500005D5D90703D0616C41F004016164010715
:102E600007D502F02001314303D0616C41F0080125
:102E70006164616C00293AD0800604D5900602D5C1
:102E8000204600F02CFC20684069616CC0F3801083
:102E9000090700D460B3204600F0FAFB20684069BF
:102EA000400621D52068143050E8001F21F0400171
:102EB00040E80012002AF5D1E06BA8B16D494163EA
:102EC000E06BFEF7ABFF002811D0E06B416B01B067
:102ED000BDE8F040084783060FD593060DD5204680
:102EE000BDE8F84000F0FBBB2046FFF779FFF8BDD6
:102EF0002046FFF775FF6564F8BD266B2023012E81
:102F00007CD1C6067AD5D60678D508684868009080
:102F100048694FF00206400640D5E16B08684068FA
:102F20000004000CE8D0A28D8242E5D9E0858869D2
:102F300020282DD020680C3050E8001F21F480712B
:102F400040E80012002AF5D12068143050E8001F34
:102F500021F0010140E80012002AF5D12068143068
:102F600050E8001F21F0400140E80012002AF5D18E
:102F700084F84230256320680C3050E8001F21F0AF
:102F8000100140E80012002AF5D1E06BFEF723FFA4
:102F90006663A08DE18D401A81B22AE0A08DE18D9B
:102FA000401A81B2E08D0028A6D00029A4D0226862
:102FB0000C3252E8000F20F4907042E80007002F16
:102FC000F5D12068143050E8002F22F0010240E8CB
:102FD0000027002FF5D184F84230256320680C309B
:102FE00050E8002F22F0100240E80023002BF5D11A
:102FF00066632046FFF778FEF8BDFFE705062BD590
:10300000150629D594F841002128F5D1A068B0F51E
:10301000805F01D12069B0B1206A411C2162216822
:1030200000784860E08C401E0004000CE084E3D18E
:103030002068C16821F08001C1602068C16841F04A
:103040004001C160D8E7206A0088C0F308004860EA
:10305000206A801C2062E5E74006CDD55006CBD51E
:10306000CA68204622F04002CA6084F8413000F06D
:10307000E7F8C1E78136000870B5040004D094F881
:103080004100002510B106E0012070BD84F84050D9
:10309000204600F023F8242084F841002068C1680D
:1030A00021F40051C160204600F07AFB20680169DC
:1030B00021F4904101612068416921F02A014161B8
:1030C0002068C16841F40051C1606564202084F823
:1030D000410084F842006563002070BD70B586B081
:1030E000002400940194029403942B4E03682B490E
:1030F000022003222A4DB34229D18B6943F4804335
:103100008B618B6903F4804304938B6943F0040360
:103110008B618969039201F0040104910102CDE9F8
:10312000001069462846FEF753FF2815CDE9000434
:10313000694628460294FEF74BFF002211462520DF
:10314000FFF720FB2520FFF70FFB06B070BD154EE3
:10315000B342FAD1CB6943F40033CB61CB6903F4BA
:10316000003304938B6943F004038B6189690392F4
:1031700001F0040104910421CDE9001069462846BC
:10318000FEF726FF0820CDE9000469462846029490
:10319000FEF71EFFD9E70000003801400010024092
:1031A000000801400044004090F84230202B01D03C
:1031B0000220704721B11AB10023036300F04CBB19
:1031C0000120704770B5054601F0B6F8002819DBFC
:1031D00000EB00110C4800EB4114204694F810114C
:1031E00001F03FFB04F5887101222846FFF7DCFF60
:1031F000002807D0012084F81202D4F81402401CE1
:10320000C4F8140270BD00000C07002090F8413093
:10321000202B01D00220704779B172B10162828403
:10322000C28400214164212180F841100068C168F6
:1032300041F08001C160002070470120704700000C
:1032400010B501F079F8002807DB044A00EB001004
:1032500002EB4010002180F8111210BD0C07002075
:10326000FEE701684A69D24352050FD46FF48062C9
:103270004A61002140F8301F2022427381730269A5
:1032800042F0040202610173012070470020704780
:10329000F8B50446C06A1E460D461746082807D0F2
:1032A000012805D010F5803F02D0206B122804D1F0
:1032B0002068016841F480710160134600224FF0DC
:1032C00001112046009600F05DF840B120680068CA
:1032D000C00502D54FF4007020640320F8BD2069BA
:1032E000B0F5804F0ED00620216800EAD51040F0DE
:1032F000F000086133463A460B49204600F08AF850
:1033000078B902E005F0FE0000E0E8B2216808614B
:10331000054933463A46891F204600F07BF80028CD
:10332000DCD00120F8BD00000800010070B5164691
:103330000D4604461EE02046FFF793FF08B101202A
:1033400070BD681C16D0FEF73DFF801BA84200D858
:1033500085B920684069C04340070BD5002044F878
:10336000300F20216173A073216941F02001216198
:103370002073E4E720684069C0434007DBD40020A5
:1033800070BD00002DE9F047984617460D460446EB
:10339000C1F30746DDF820902AE000BFB8F1FF3FF7
:1033A00026D0FEF70FFFA0EB0901414502D8B8F186
:1033B000000F1DD12068012E16D0806925EA00007B
:1033C0000004000C12D00020B84211D1002044F8B3
:1033D000300F20216173A073216941F02001216128
:1033E00020730120BDE8F0874069E7E70120EBE7A3
:1033F0002068012E0AD0806925EA00000004000C34
:1034000006D00020B842C9D00020EBE74069F3E7BE
:103410000120F7E72DE9F047984616460D46044689
:103420004FF000094FF0200AC1F3074723E020685E
:103430004069C043400515D42068016841F400711B
:10344000016021686FF480604861C4F8309084F8AE
:103450003DA084F83E90216C41F00401216484F881
:103460003C9021E0701C06D0FEF7ACFEA0EB0800FB
:10347000B04203D816B1012F1FD021E02068012FE0
:1034800015D0806925EA00000004000C18D000BFA8
:1034900044F8309F84F80DA084F80E90216941F023
:1034A0002001216184F80C900120BDE8F08740697B
:1034B00025EA00000004000CEAD12068406901E020
:1034C0002068806925EA00000004000CAFD1ECE719
:1034D00070B516460D4604461EE02046FFF7C1FEB5
:1034E00008B1012070BD681C16D0FEF76BFE801B72
:1034F000A84200D885B920684069C04300060BD5B2
:10350000002044F8300F20216173A073216941F03D
:10351000200121612073E4E720684069C043000670
:10352000DBD4002070BD00000D4808B5816941F072
:1035300020018161816901F020010091816941F0E0
:1035400004018161816901F004010091816941F008
:1035500008018161806900F00800009008BD00004A
:10356000001002400D4810B50B4901600C49416044
:1035700000214FF480428160C0E903124161816102
:10358000C1610162FEF73EFE002803D0BDE8104095
:10359000FEF71FBC10BD000000540040500000208A
:1035A000801A06000C4810B50A4901604FF4E13159
:1035B0004160002181600C22C160C0E90412816178
:1035C000C161FFF759FD002803D0BDE81040FEF7A8
:1035D00000BC10BD00380140A40000200C4810B50C
:1035E0000A4901604FF4E1314160002181600C2201
:1035F000C160C0E904128161C161FFF73DFD00288F
:1036000003D0BDE81040FEF7E4BB10BD004400400D
:10361000EC000020FEE7FEE770477047FFF74CB86C
:1036200030B58FB028216846FDF7A7F814210AA805
:10363000FDF7A3F801210804CDE90010002402944D
:1036400002250491CDE907504FF4E0100990684637
:10365000FFF7A6F908B172B6FEE70F20CDE90A051B
:103660004FF48060CDE90C4002210AA80E94FFF7C8
:10367000BBF8002801D072B6FEE70FB030BD70472E
:1036800010B5406A0021C185C184FFF7A9FB10BDB8
:1036900001680C3151E8002F22F4907241E80023B8
:1036A000002BF5D10168143151E8002F22F00102FE
:1036B00041E80023002BF5D1016B012909D10168F4
:1036C0000C3151E8002F22F0100241E80023002BBA
:1036D000F5D1202180F8421000210163704708B520
:1036E00090F84210222901D0022008BD82684FF4D0
:1036F00080539A4201D1016921B1816A9A421BD05B
:103700004AB10AE00268816A5268C2F308020A807C
:10371000816A891C08E0026972B10268526802F08D
:103720007F020A70816A491C8162C18D491E0904A9
:10373000090CC18503D01BE002685268F1E70168FB
:10374000CA6822F02002CA600168CA6822F4807246
:10375000CA6001684A6922F001024A61202180F8AA
:10376000421000214163026B012A03D0FFF72AFDBA
:10377000002008BD016301680C3151E8002F22F0E0
:10378000100241E80023002BF5D101680A68D20637
:1037900002D50A6849680091818DFFF7A5FAE7E72D
:1037A00070B5044600680169E26821F44051114394
:1037B00001612169A0680843616908432168CA68FA
:1037C00041F20C639A430243CA6020684169A269CE
:1037D00021F44071114341611E492068884202D1A1
:1037E000FFF7A8F801E0FFF795F800EBC00101EB47
:1037F0000012606864218000B2FBF0F3B3FBF1F3C8
:103800006FF018067343B2FBF0F5B2FBF0F605EB70
:103810008305322303EB0515B5FBF1F5B6FBF1F695
:1038200005F0F00505EB0615B2FBF0F6B2FBF0F083
:10383000B0FBF1F06FF01802504306EB800003EB91
:103840000010B0FBF1F0216800F00F002844886000
:1038500070BD00000038014081628285C285002170
:103860004164222180F84210016921B10168CA68CF
:1038700042F48072CA6001684A6942F001024A61FA
:103880000068C16841F02001C1600020704700005D
:103890000148FFF7BBBA0000A40000200148FFF771
:1038A000B5BA0000EC000020FEE7490050EAC12054
:1038B00018BF04204A0D18BF40F0010040F2FF720B
:1038C000B2EB515F08BF40F00200012808BF05209D
:1038D00070470907090E002804DB00F1E02080F89A
:1038E0000014704700F00F0000F1E02080F8141D74
:1038F000704730380A2801D20120704700207047F5
:1039000001480078704700001000002070B5124C8C
:10391000124800252570056245628562C5621C213A
:103920003030FCF72AFF00F063FB00F04DFA00F0A6
:10393000FDFF0A4800F096FD00F066F9FEF742FC34
:103940002061E060A0600C206070A5616561657118
:103950002571E570A57070BD1000002034010020B5
:103960002DE9F04FC1B04FF0000BFEF72BFC0546E0
:1039700000F0B6FB9F4C0026DFF87C9220784FF4D5
:103980007A7701280ED1A068281AB8420AD90220F5
:10399000207000F0DDFFC9F81860C9F8006000F081
:1039A00043FC8346E068281AB0F57A7F0ED300F016
:1039B000D5FF9148E56000F0AFFF2078012803D0E3
:1039C000C9F81860C9F8006001206071602205A97B
:1039D000012000F051FB0346002022790EE005A9EA
:1039E000095C542906D0742904D0462904D06629DC
:1039F00002D002E0012200E00022401C9842EED3F7
:103A0000A24627462271002000F056FB0446786942
:103A1000844207D078483038C675002000F0DCFAC0
:103A2000CAF81440602205A9002000F025FB0746D3
:103A300000247CE005A81FAB015D6F482A463038A2
:103A400000F09DFCF0B324A91FA800F0A4FEC8B3A9
:103A5000BDF9900000F57A70B0F5FA6F66D8BDF93F
:103A6000920010F57A7F61DBB0F57A7F5EDCBDF8FD
:103A7000941040F6E440814258D8BDF89610814237
:103A800054D89DF89900032850D8BDF99A005B4995
:103A900088424BDB4A42904248DCBDF99C00884298
:103AA00044DB904242DCBDF99E0000283EDBB0F5CD
:103AB000616F3BDC9DF87C00172328AA24A900F045
:103AC000F6FD00E032E0172128A800F048FE019042
:103AD0009DF87C002A46019900F0E0FE804602280D
:103AE00024D0454A9DF87C0009231C32019900F03E
:103AF0001BFE01208AF80300CAF808508AF800006B
:103B0000B8F1000F12D124A93B4891E80C111038EC
:103B100080E80C119DF87C008AF8020000F084FB1C
:103B200010B95FEA0B0000D001208346641CBC4240
:103B300080D39AF80300544638B12F4909221C312A
:103B4000002000F019FB00B1E670607960B32079C5
:103B500058B3DFF8ACA04F465146D9F8040001F045
:103B600091F801F043F880465146386801F08AF830
:103B700001F03CF8A3693A69CDE90120CDE903835E
:103B8000F86800901F4A702124A8BB68FCF78CFBE2
:103B9000002814DD702800DB6F2082B224A90120E8
:103BA00000F0EAFA09E0667109E020780128FAD00D
:103BB000BBF1000FF7D100F037FB0028F3D1284606
:103BC00000F012F92069291A607881420ED3C0F101
:103BD00019002561607000F0EDF828B10648D9E9B8
:103BE0000012103800F012F800F0C2F941B0BDE840
:103BF000F08F00001000002064010020F8F8FFFFA3
:103C0000000020410C5A000800F0B4B82DE9FC4136
:103C10001646884604004BD000F0ACF8FFF770FE63
:103C200005462449304601F02DF800F0DFFF0A2157
:103C3000B0FBF1F201FB1207304600F0D7FF064659
:103C4000404600F0D3FF0346012DCDE900672BD09D
:103C5000022D2BD018A21AA1002000F07FFCB4F98D
:103C60000230B4F900201BA10C2000F077FC207A70
:103C700001090091617A00F00F0201F0030318A11D
:103C8000182000F06BFCB4F90C30B4F90A2019A12B
:103C9000242000F063FCB4F90E2002B018A1BDE8A6
:103CA000F041302000F05ABC19A2D4E71AA2D2E7A2
:103CB000BDE8FC810000204157414954000000004C
:103CC0002573202575487A204C3A25752E257525B3
:103CD00025000000583A25356420593A25356400FE
:103CE0004B45593A25582053573A255820455252AA
:103CF0003A255800503A25356420523A253564005B
:103D0000593A2535642028302E3120646567290012
:103D10004C494E4B000000004C4F53540000000033
:103D20007FB5114CA07800281DD100F071FA0F4822
:103D3000FEF74EFA002816D1C0211120CDE900105F
:103D400000250320CDE90250094E01223046FEF73E
:103D500034FA69463046FEF73BF90120A070E57061
:103D6000FEF730FAE0607FBD2C00002050000020FC
:103D7000000C01404FF480610148FCF7DCBC0000FE
:103D80008901002030B5802810D240290ED201F0E0
:103D900007040123064DA340C90805EBC111002A01
:103DA0000A5C01D01A4300E09A430A5430BD000077
:103DB000890100200348007808B1002070470120E5
:103DC000704700002C00002010B5FFF7D3FF054C12
:103DD000002020706070A070FEF7F4F9A0F561700B
:103DE000A06010BD2C00002010B5204C88B0A17838
:103DF00019B100F041FB08B010BD61780029FAD17B
:103E0000A168411AB1F57A7FF5D3A060184800681F
:103E10008069C043800725D580211648FEF7C8F980
:103E200000B37821A180022301221148FEF7AEFAE7
:103E300040B17A21A180022301220D48FEF7A6FAA3
:103E40000028D8D11C220CA16846FCF742FC1A219C
:103E5000684600F0C1FD0028CDD001206070002030
:103E60002070C8E7FFF75CFFC5E700002C000020CA
:103E700050000020000C014000AED580A83FD300C8
:103E8000408D142002A1C8DA12817FD9F1DB40A451
:103E9000A6AF00002DE9F04F8146A2F12000DDF829
:103EA00024B01D4688465F2800D33F220C2D01D048
:103EB000102D39D16F080C2D07D01C4800EB0210D3
:103EC000A0F50070824600262CE0194902EB420062
:103ED00001EB8000A0F5C070F4E700241FE000BFF4
:103EE00009EB060008EB0401802817D2402915D2FF
:103EF000720002EBD40304F0070C1AF803208023AD
:103F000023FA0CF31A4000D00122BBF1000F01D1BB
:103F100082F00102C9B2C0B2FFF734FF641CAC42A8
:103F2000DED3761CBE42D8D3BDE8F08FC252000863
:103F30004E4E00082DE9F8411E46079F15008846A1
:103F400013D00C2E0AD0102E0FD107E0C0B233468A
:103F500041466D1C0097FFF79DFF20462A78002AF6
:103F600003D000EB5604802CF0D9BDE8F8810000A6
:103F700038B5154C6078A178401E084322D113A0B3
:103F80000421006800902078B0308DF80100684668
:103F900000F022FD002815D00D48402100F8011B3B
:103FA0000C49227801EBC2118022FCF70BFB812126
:103FB000074800F011FD002804D02078401C00F0D4
:103FC0000700207038BD00002C0000200000001009
:103FD0008905002089010020022806D2034900EB50
:103FE000001001EB401000F006BC70470C070020E9
:103FF0002DE9F04100221146501EFEF7C3FB0022BE
:1040000001212520FEF7BEFB2520FEF7ADFB002297
:1040100003212620FEF7B6FB2620FEF7A5FB154E52
:1040200000254FF408774FF4807800BF05EB0510AA
:1040300006EB401439462046FCF79FFB04F11001C3
:104040004246204600F0E4FB284600F06BF904F5F8
:1040500088710122FFF7A8F838B1012084F8120214
:10406000D4F81402401CC4F814026D1C022DDDD3D8
:10407000BDE8F0810C0700202DE9F04117460E46FF
:10408000022807D236B10B4900EB0010002401EBE7
:10409000401504E00020BDE8F081641CA4B2BC42DD
:1040A00005D23119284600F0C2FB0028F5D1204680
:1040B000F1E700000C07002010B502280BD200EB3E
:1040C0000011064800EB4114204600F09DFBD4F897
:1040D0001412084410BD002010BD00000C07002081
:1040E0002DE9F8430025234F80462E464FF0010965
:1040F00005EB051007EB401494F8110290B1D4F8C9
:104100001812A8EB010064280CD9284600F00AF91F
:10411000FEF735FE08B984F81162D4F81C02401C81
:10412000C4E9868094F81202F8B184F81262284635
:1041300000F0F8F8FEF7D9FDA8B92846009600F07F
:10414000F1F8006800680090284600F0EBF800687D
:1041500040680090284600F0E5F8012204F58871D7
:10416000FFF722F808B184F812926D1C022DBFD31C
:10417000BDE8F8830C0700202DE9F04115460F46F5
:104180000646022804D21FB115B1B5F5807F02D9C9
:104190000020BDE8F081184906EB061001EB401441
:1041A00094F8110230B9304600F0BCF890F84100A4
:1041B000202805D0D4F81C02401CC4F81C02E7E7F4
:1041C000394604F211102A460746FCF7FBF9FDF7C1
:1041D000F9FFC4F81802012084F81102304600F0FB
:1041E000A1F82A463946FFF711F818B1002084F8E3
:1041F0001102DFE70120CCE70C070020C17D002978
:1042000005D0491ECAB2C275411CFCF720BA7047DE
:1042100070B5044C00256570FDF7D4FFA0602570D3
:1042200070BD00002C0000202DE9F041344C3548D1
:10423000224621791678D0E90072BEB0F1B3DFF8DA
:10424000C8801046414600F01DFD00F0CFFC054639
:104250004146384600F016FD00F0C8FC01462948EA
:104260001038027ACDE909151309CDE90B36B0F9FA
:104270000E10467AB0F90C30B0F90A50CDE907318A
:1042800006F00306CDE9056502F00F02C1888388B8
:10429000B0F90250CDE90312CDE90153B0F90000A5
:1042A0000090A378194AC0210DA8FBF7FDFF002854
:1042B00023DDC02800DBBF2082B20FE0FFE7C02172
:1042C0000DAB012E14D000250095CDE90131836995
:1042D0000C483946103800F05FF902466AB10DA962
:1042E0000120FFF749FF28B101203EB0BDE8F08171
:1042F0000125E9E7A069401CA0610020F5E7000066
:10430000100000206401002000002041B059000886
:1043100010B5AA240470552444708170C2700371D2
:1043200010BD000008B10248704702487047000005
:10433000EC000020A40000200649884201D10020A2
:1043400070470549884201D1012070474FF0FF3086
:1043500070470000A4000020EC000020FEF7B4F934
:10436000FFF75EF9FFF7E0F8FFF7FCF8FFF71AF93F
:10437000FFF734F9FFF7CAFAFFF7F2FAFCE72DE985
:10438000F0411D460E46040044D0BDB3E07D40B16F
:10439000E069101A642804D90020E075A069401C67
:1043A000A061E261E07D172805D32046FFF726FFD4
:1043B000A069401CA061E07D411CE175265405E028
:1043C0002178AA2907D02046FFF718FFE07D0028B2
:1043D000F6D1BDE8F08102281CD361785529F2D1CD
:1043E000042817D3E678102E01D0022E22D10528FA
:1043F00010D3102E03D0022E1CD104E00AE0217944
:10440000012917D102E02179802913D1F11DCFB202
:10441000B84201D20020DCE704EB070818F8010CD1
:104420000D2807D1A01CF11C00F034F918F8021C6B
:10443000884203D0A069401CA061C4E7A07828701E
:1044400020796870AE703246611DE81CFCF7BAF83E
:10445000E07DE119C01BC2B2E2752046FCF7F7F817
:104460000120B6E7002802D02021FCF786B970476A
:104470000170090A417070472DE9F0412E4C054644
:10448000E06885422AD0E560A17806272B480629F6
:1044900039D2DFE801F03803090F2C330022402124
:1044A000FDF78BFE022027E001224021FDF785FE6B
:1044B000032021E040210646FDF77AFE68B1E0784E
:1044C000401CC0B2E07009280AD280213046FDF7B6
:1044D0006FFE012804D001200EE0A770BDE8F08136
:1044E0000022C0213046FDF768FE042004E00122CE
:1044F0004021FDF762FE0520A070EFE70122802138
:10450000FDF75BFEE9E70122C021FDF756FE0C48EE
:10451000016941F400110161016921F40011016197
:104520000848FDF76FFE08B1FFF772FE0020A0708B
:10453000A5F57A75A560D1E72C000020000C01409C
:10454000001002405000002030B1016821B1808885
:10455000022801D301207047002070470FB41821B2
:1045600010B588B004460CAB01A80B9AFBF782FE8D
:1045700001200090E1B20C2301AA0020FFF7DAFC31
:1045800008B010BC5DF814FB0088010401D5A0F54B
:10459000803000B2704700002DE9F04F8FB004006A
:1045A000DDE91950DDF860B0994690468A4602D0A0
:1045B0000DB13C2803D200200FB0BDE8F08FB4F954
:1045C000000000F033FB0090B4F9020000F02EFB75
:1045D0000190A08800F042FB2C4E314600F052FBC7
:1045E0000290E08800F03AFB314600F04BFB03906C
:1045F000267A06F00F0000F031FB0490607A00F09C
:10460000030000F02BFB0590B4F90A0000F00EFB4C
:104610001F4F394600F036FB0690B4F90C0000F04D
:1046200005FB394600F02EFB0790B4F90E0000F0B0
:10463000FDFA394600F026FBCDE9080A3009CDE93C
:104640000A8900F00BFB0C905FEA0B0001D04FF0E1
:104650007E5000216C460D9054F821300020C60099
:1046600023FA06F200EB8106401CAA550428F6D373
:10467000491C0E29F0D3002005F8380F68708020FF
:10468000A8707F20E8703C2096E700006F12833A04
:10469000CDCCCC3D002228B907E000BF10F8013B8B
:1046A0001A44D2B2491E89B2F8D21046704770B58A
:1046B00014460D0002D00CB1172B01D2002070BDA2
:1046C0000146012310222046FFF722FE2988601DA3
:1046D000FFF7CEFE6988E01DFFF7CAFEA98804F146
:1046E0000900FFF7C5FEE98804F10B00FFF7C0FEE3
:1046F000287A6073687AA073698904F10F00FFF764
:10470000B7FEA98904F11100FFF7B2FEE98904F1AF
:104710001300FFF7ADFE1321A01CFFF7BBFF607570
:104720000D20A075172070BD70B514000D4601D086
:10473000092B01D2002070BD0146802302222046B1
:10474000FFF7E6FD2946601DFFF792FE0521A01C3C
:10475000FFF7A0FFE0710D202072092070BD30B579
:1047600002004FF6FF700ED041F22104491E89B2BB
:104770000AD312F8013B80EA03200023050404D584
:1047800084EA400002E0002030BD40005B1C80B2A3
:10479000082BF3D3EAE770B50D46040006D02DB11F
:1047A0006078012802D1A078102801D0002070BDC7
:1047B000E01CFFF7E9FE2880601DFFF7E5FE68803A
:1047C000B4F80700A880B4F80900E880E07A2872FD
:1047D000207B687204F10D00FFF7D6FE688104F1BA
:1047E0000F00FFF7D1FEA88104F11100FFF7CCFE06
:1047F000E881012070BD10B50446FFF7A5FE002832
:1048000001D0E088208110BD002800D0C06870472A
:1048100000280BD009B1022A00D20021016001B9A1
:10482000002282800021C1800181C160704770B583
:104830000D460446FFF788FE4042284004D02089F8
:10484000E188814201D1002070BD2168095C297096
:10485000A188401CB0FBF1F201FB12002081012075
:1048600070BD70B50D460446FFF76EFE00280ED0F1
:10487000E088A288411CB1FBF2F302FB13118AB25B
:104880002189914204D1E068401CE060002070BDA5
:1048900021680D54E280012070BD000070B51C4BF2
:1048A000DC68641CDC605D781A4C25B31D69551BFF
:1048B000B5F57A7F02D900255D701CE01D78451B97
:1048C00015F0FF0506D0802D0DD36069401C606196
:1048D000022070BD58888142F7D12069401C2061B8
:1048E00001201A6170BD9E682E44761E9E60E668A7
:1048F0006D1E3544E56001255D70187059801A61A0
:104900005868401C5860A068401CA060002070BD22
:104910003C0000204C0B0020002803D01C22024940
:10492000FBF7D7BE704700004C0B002010B51C21D0
:104930000548FBF722FF054800210161C160816045
:104940004160417010BD00004C0B00203C00002075
:1049500001490020487070473C0000202DE9F041DB
:1049600000282FD000F07AF9174C0746606880467F
:1049700000F074F9154E314600F084F9394600F024
:1049800073F8134D2860E06800F068F9314600F0D4
:1049900079F9394600F068F8A861A76818EB0700B4
:1049A0000BD000F05BF90646384600F057F909498C
:1049B00000F068F9314600F057F868600020E060C8
:1049C000A0606060BDE8F0813C00002000007A44F7
:1049D0004C0B00200000C8420B4A08B512689269CF
:1049E000D243920709D504220092024607480B469B
:1049F00081880548FDF780FD18B1FFF709FC00200C
:104A000008BD012008BD0000500000202C0000203F
:104A100010B500290AD00878002807D00548784446
:104A2000FCF7C6FD002801D0002010BD02487844E4
:104A300010BD0000561000004E10000010B50029F7
:104A40000AD00878002807D005487844FCF7B0FD64
:104A5000002801D0002010BD0248784410BD00009D
:104A6000461000003E1000004FF47F0C1CEAD012EC
:104A70001EBF1CEAD11392EA0C0F93EA0C0F00F050
:104A8000858090EA010F48BF42F4807240F4000C28
:104A900041F400002CF07F4120F07F4000B58142BE
:104AA000A2EB03020FF2081CACEB504EC0F1000069
:104AB0009EF800E04FEA4E0E00FB0EFC38BF4900A6
:104AC0004FEA2C1C02F5FA020CFB0EF34FEACE1E45
:104AD0004FEA112C4FEAC1210EEB635E42EB2242FA
:104AE0000EFB0CFC4FEA1C5300FB03114FEA112C88
:104AF0004FEA01310EFB0CFC4FEADC4C00FB0C11C1
:104B0000C14228BF09184CEB03335DF804EB10EBEE
:104B1000410143EBC250B2F57C0F38BF704729D535
:104B200012F0F00F1CBF00F1C04000F000407047D1
:104B3000008182838485868788898B8C8D8E8F9176
:104B40009293959697999A9C9D9FA0A2A3A5A7A89A
:104B5000AAACAEB0B2B3B5B7B9BCBEC0C2C5C7C9C6
:104B6000CCCED1D4D7D9DCDFE2E6E9ECF0F3F7FA2A
:104B7000FE0000004FEA400C0CF1807CBCF17E4F3F
:104B800028BF7047B0F1C04000F043B990EA010F70
:104B90000CEAD11348BF42F48072624538BF6345C6
:104BA00007D213F47F0F16D080EA010000F0004016
:104BB000704710B500F0E7F8097EFC3E00F005B83C
:104BC00080EA010000F00040704780EA010000F038
:104BD000004000F01EB912F47F0F04BF0248704776
:104BE00080EA010000F015B90000C07FC10DD1F1CD
:104BF0009E0206DB4FEA002343F0004323FA02F053
:104C00007047004207D54FEA4001B1F1FE4F02D292
:104C10004FF00000704710B500F0B5F849922480BD
:104C2000002070476FEA20007047000010F000413C
:104C300048BF4042B0FA80F310FA03F2C3F19D037B
:104C40000BD051EAC35101EB1220530638BF704715
:104C500000F1010008BF20F001007047B0FA80F3B6
:104C600010FA03F2C3F19D030AD0D90501EB12201B
:104C7000530638BF704700F1010008BF20F0010063
:104C8000704700004FF47F0C1CEAD0121EBF1CEAD4
:104C9000D11392EA0C0F93EA0C0F00F0478090EAD0
:104CA000010F48BF42F480724FF0004C4CEA0020E4
:104CB0004CEA012102EB0302A0FB0113A2F5000262
:104CC000002918BF43F001035B0028BF4FEA3303FC
:104CD00042EB22425FEA132C4CEBC2502EBFBCEBDE
:104CE000436FB2F57C0F70474FEA036CBCF1004F85
:104CF00008BF20F00100B2F57C0F38BF70470BD51C
:104D000082F0FF0212F5803FC8BF704700F1C0403B
:104D1000D8BF00F00040704700F5000C5FEA4C0C73
:104D200048BF7047B0F1C04000F073B890EA010F7F
:104D30000CEAD11348BF42F48072624538BF634524
:104D400004D280EA010000F00040704710B500F086
:104D50001AF800BF8900013E00F007B800F009B85A
:104D60005FEA410C5FEA1C6C08D080EA010000F0A9
:104D700050B85FEA400C5FEA1C6CF6D14FF000407F
:104D8000A0F5800070470EF1020E2EF0030E5EF8C3
:104D9000044B244204D44FEA4102B2F17F4F11D8B0
:104DA0004FEA4003B3F17F4F0CD80ED14FEAD07CCD
:104DB000B2F17F4F0CEB4C0C0CF1020C08BF4CEB2A
:104DC000D17C04E04FF0080C01E04FEAD17C0CEB01
:104DD0004C0324FA03F404F00704B4F1040C06D2E3
:104DE0000EEB840CBDE810404CF0010C6047DFE88E
:104DF0000CF0070802024FF00040A0F5800010BD43
:104E00000846420018BFD2F1807288BF00F000400F
:104E100010BDFF2141EAD050C0057047FBF7D5BF58
:104E2000FCF70AB9010202030405060708090A0B88
:104E30000C0D0E0F10100000000000000000010219
:104E40000304060708090000000001020304000033
:104E500000000000000000000000000000003F40D3
:104E60000000000000000000300040003000400062
:104E7000000009000BC03D000BC03D00090018C038
:104E800024407FE0224031800000180024C01B0035
:104E90000D803240018003801C4027401C80074069
:104EA0000040100060000000000000000000000052
:104EB000000000001F8020404020000040202040D3
:104EC0001F8000000000090006001F800600090086
:104ED0000000040004003F800400040000000010F3
:104EE0000060000000000000000004000400040056
:104EF000040004000000000000400000000000006A
:104F00000000002001C006003800400000001F80A3
:104F10002040204020401F800000000010403FC083
:104F200000400000000018C02140224024401840EA
:104F3000000010802040244024401B80000002001C
:104F40000D0011003FC0014000003C80244024407F
:104F50002440238000001F802440244034400380EC
:104F600000003000200027C03800200000001B8017
:104F70002440244024401B8000001C0022C022400A
:104F800022401F80000000000000084000000000D8
:104F900000000000000004600000000000000000AD
:104FA00004000A00110020804040090009000900A7
:104FB00009000900000000004040208011000A00A4
:104FC00004001800200023402400180000001F8067
:104FD0002040274029401F400000004007C0390002
:104FE0000F0001C0004020403FC0244024401B80EF
:104FF00000001F80204020402040308000002040E2
:105000003FC0204020401F80000020403FC024407F
:105010002E4030C0000020403FC024402E00300011
:1050200000000F001080204022403380020020400A
:105030003FC0040004003FC02040204020403FC04B
:105040002040204000000060202020203FC02000A1
:10505000200020403FC024400B0030C020402040B2
:105060003FC020400040004000C03FC03C0003C0A3
:105070003C003FC0000020403FC00C4023003FC028
:1050800020001F802040204020401F800000204042
:105090003FC024402400180000001F802140214010
:1050A00020E01FA0000020403FC02440260019C07F
:1050B000004018C0244024402240318000003000CD
:1050C00020403FC020403000000020003F800040D2
:1050D00000403F80200020003E0001C00700380053
:1050E0002000380007C03C0007C038000000204006
:1050F00039C0060039C0204000002000384007C0F9
:10510000384020000000304021C02640384020C0F8
:105110000000000000007FE0402040200000000070
:1051200070000C0003800040000000004020402080
:105130007FE0000000000000200040002000000090
:1051400000000010001000100010001000100000FF
:105150000000400000000000000000000280054048
:10516000054003C0004020003FC0044004400380CD
:1051700000000000038004400440064000000000DE
:105180000380044024403FC00040000003800540ED
:10519000054003400000000004401FC0244024409C
:1051A0002000000002E00550055006500420204079
:1051B0003FC00440040003C000400000044027C07A
:1051C00000400000000000100010041027E0000064
:1051D000000020403FC00140070004C004402040C0
:1051E00020403FC000400040000007C0040007C04E
:1051F000040003C00000044007C00440040003C0D2
:1052000000400000038004400440038000000410BC
:1052100007F00450044003800000000003800440B5
:10522000045007F00010044007C0024004000400CE
:105230000000000006400540054004C000000000DA
:1052400004001F800440004000000400078000406C
:10525000044007C000400400070004C001800600AD
:105260000400060001C0070001C006000000044061
:1052700006C0010006C0044000000410071004E04E
:105280000180060004000000044005C00640044000
:1052900000000000000004007BE04020000000004F
:1052A00000000000FFF000000000000040207BE054
:1052B00004000000000040008000400020002000AA
:1052C000400000000000000000000000000000009E
:1052D00000000000000000001FCC000C00000000D7
:1052E000000000000800300060000800300060008E
:1052F0000000022003FC1E20022003FC1E200220CE
:10530000000000000E1811043FFF10840C7800000C
:1053100000000F0010840F3800C007781884007850
:10532000000000780F8410C411240E9800E400845B
:105330000008080068007000000000000000000085
:10534000000000000000000007E0181820044002E0
:105350000000000040022004181807E000000000D0
:1053600000000240024001800FF001800240024034
:1053700000000080008000800FF800800080008026
:1053800000000001000D000E000000000000000001
:10539000000000000080008000800080008000800D
:1053A00000800000000C000C000000000000000065
:1053B00000000000000600180060018006001800D0
:1053C0002000000007F0080810041004080807F087
:1053D00000000000080408041FFC00040004000092
:1053E000000000000E0C10141024104411840E0C48
:1053F000000000000C1810041104110412880C7035
:105400000000000000E00320042408241FFC002406
:10541000000000001F9810841104110410881070FF
:105420000000000007F008881104110418880070BB
:10543000000000001C00100010FC13001C001000F5
:10544000000000000E3811441084108411440E38FE
:10545000000000000700088C10441044088807F082
:105460000000000000000000030C030C000000001E
:105470000000000000000001010600000000000024
:105480000000000000800140022004100808100401
:10549000000002200220022002200220022002201E
:1054A00000000000100408080410022001400080E1
:1054B000000000000E001200100C106C10800F0095
:1054C000000003E00C1813E4142417C4082807D0C4
:1054D00000000004003C03C41C40074000E4001C22
:1054E000000410041FFC1104110411040E88007044
:1054F000000003E00C1810041004100410081C1025
:10550000000010041FFC100410041004080807F029
:10551000000010041FFC1104110417C41004081823
:10552000000010041FFC1104110017C01000080037
:10553000000003E00C181004100410441C78004014
:10554000000010041FFC10840080008010841FFCE9
:1055500010040000100410041FFC100410040000CC
:10556000000000030001100110011FFE10001000D8
:10557000000010041FFC110403801464181C1004A4
:10558000000010041FFC1004000400040004000CC0
:10559000000010041FFC1F0000FC1F001FFC100473
:1055A000000010041FFC0C04030000E010181FFC96
:1055B000100007F00808100410041004080807F091
:1055C000000010041FFC10841080108010800F0059
:1055D000000007F0081810241024101C080A07F215
:1055E000000010041FFC1104110011C011300E0C3A
:1055F000000400000E1C11041084108410441C3898
:1056000000001800100010041FFC10041000180007
:10561000000010001FF810040004000410041FF81C
:10562000100010001E0011E0001C007013801C0010
:1056300010001FC0103C00E01F0000E0103C1FC025
:1056400000001004180C163401C001C01634180CE8
:10565000100410001C00130400FC13041C001000B4
:1056600000000804101C1064108413041C0410189B
:1056700000000000000000007FFE400240024002E7
:105680000000000030000C0003800060001C0003DC
:10569000000000004002400240027FFE00000000C7
:1056A00000000000000020004000400040002000FA
:1056B00000000001000100010001000100010001E3
:1056C0000001000040004000200000000000000039
:1056D000000000000098012401440144014400FC42
:1056E000000410001FFC0088010401040088007001
:1056F000000000000070008801040104010400881B
:1057000000000000007000880104010411081FFC63
:105710000004000000F8014401440144014400C8B1
:1057200000000000010401040FFC11041104110029
:105730001800000000D601290129012901C901062C
:10574000000010041FFC008401000100010400FCA3
:10575000000400000104190419FC00040004000006
:1057600000000000000300010101190119FE000002
:10577000000010041FFC0024004001B4010C0104CF
:1057800000000000100410041FFC000400040000CE
:105790000000010401FC0104010001FC01040100FE
:1057A00000FC010401FC008401000100010400FC74
:1057B0000004000000F8010401040104010400F8E1
:1057C0000000010101FF0085010401040088007050
:1057D000000000000070008801040104010501FFC1
:1057E00000010104010401FC0084010401000180A6
:1057F0000000000000CC01240124012401240198B0
:10580000000000000100010007F80104010400008D
:105810000000010001F8000400040004010801FC7C
:105820000004010001800170000C00100160018083
:10583000010001F0010C003001C00030010C01F04A
:10584000010000000104018C00740170018C01044E
:105850000000010101810171000E0018016001804A
:10586000010000000184010C013401440184010C99
:105870000000000000000000000001003EFC4002AB
:1058800040020000000000000000FFFF00000000D8
:1058900000000000400240023EFC01000000000049
:1058A00000000000600080008000400040002000F8
:1058B00020003031323334353637383941424344B1
:1058C0004546403058003031323334353637383978
:1058D000616263646566403078000400000800007F
:1058E00000000000000200010000100000000000A5
:1058F00000000000303132333435363738396162D8
:105900006364656678700030313233343536373849
:1059100039414243444546585000000002400000CF
:10592000000000A00000000005400000000000C8CA
:10593000000000000C4000000000409C000000003F
:10594000194000000020BCBE0000000034400000F0
:10595000BFC91B8E00000004B5400000504BCFD0E3
:105960006607E2CF010000006C4100003E8251AAB0
:10597000DFEEA73401000000D9420000DCB5A0E250
:105980003A301F97FFFFFFFFB4450000FD25A0C878
:10599000E9A3C14FFFFFFFFFFF3F000000000080B1
:1059A00000000000FF3F0000000000800000000039
:1059B000522069643D257520783D256420793D2578
:1059C00064206D763D25752C2575206B65793D2508
:1059D000582073773D25582064656731303D256434
:1059E0002C25642C256420687A31303D2575206C87
:1059F0006F737331303D257520666C6167733D258B
:105A000058206C696E6B3D25750D0A005354415446
:105A100020756E697175653D256C75206C6F7374AA
:105A20003D256C75206475706C69636174653D25F6
:105A30006C7520487A31303D2575206C6F73733159
:105A4000303D25752070635F64726F703D256C7505
:105A50000D0A0000A05B00080000002050000000BC
:105A600028010008F05B00085000002078150000B5
:105A7000440100081C00000043000000F8FFFFFF85
:105A80000C0000000E0000000F0000002E000000BF
:105A90001001000043000000F8FFFFFF00404040FD
:105AA00040404040404041414141414040404040F1
:105AB000404040404040404040404040400502029D
:105AC000020202020202020202020202022020205C
:105AD00020202020202020020202020202029090B8
