:020000040800F2
:10000000381B002035020008CF440008F93F0008E3
:10001000CD440008311F00086948000800000000B6
:10002000000000000000000000000000C1450008C2
:100030006B1F000800000000D1440008C345000801
:100040004F0200084F0200084F0200084F0200084C
:100050004F0200084F0200084F0200084F0200083C
:100060004F0200084F0200084F020008351F000829
:100070004F0200084F0200084F0200084F0200081C
:100080004F0200084F0200084F0200084F0200080C
:100090004F0200084F0200084F0200084F020008FC
:1000A0004F0200084F0200084F0200084F020008EC
:1000B0004F0200084F0200084F0200084F020008DC
:1000C0004F0200084F0200084F0200084F020008CC
:1000D0004F020008514800085D4800084F02000820
:1000E0004F0200084F0200084F02000800F002F81B
:1000F00000F090F80AA090E8000C82448344AAF132
:100100000107DA4501D100F085F8AFF2090EBAE82F
:100110000F0013F0010F18BFFB1A43F0010318473B
:10012000F087000010880000103A24BF78C878C11A
:10013000FAD8520724BF30C830C144BF04680C60ED
:10014000704700000023002400250026103A28BF35
:1001500078C1FBD8520728BF30C148BF0B60704739
:100160006E2900F08883702900F0E984662907F081
:100170000485652907F00185672907F0FE84612958
:1001800007F0FD8403681B0A28BF41F0800169293C
:1001900000F0F680642900F0F380752900F0F0800B
:1001A0006F2900F07684782900F0B584E92900F001
:1001B0001184E42900F00E84F52900F00B84EF2966
:1001C00000F07384F82900F0B4840368DB0928BFC9
:1001D00041F08001632900F09283732900F0978336
:1001E000E32901F0D580F32901F0DA80002070477F
:1001F0001FB501F02BF904000020002107F032F9AF
:10020000401C60600020002107F016F9E0601FBD6F
:1002100010B510BD01F0ECF81146FFF7E9FF05F04D
:10022000D1FF01F0C9F903B4FFF7F2FF03BC01F0FD
:100230000DFA00000948804709480047FEE7FEE73D
:10024000FEE7FEE7FEE7FEE7FEE7FEE7FEE7FEE786
:1002500004480549054A064B704700003F46000820
:10026000ED00000838110020381B00203813002052
:10027000381300207CB51D4616460C00009001D0B6
:100280002044401E074B7B442A4669460190304675
:1002900000F00BFB05461CB10020694600F018FB7E
:1002A00028467CBD510600000FB47CB50C0009AA9D
:1002B000009001D02044401E084B7B4469460190C9
:1002C000089800F0F2FA05461CB10020694600F0DB
:1002D000FFFA28467CBC5DF814FB00001D060000F8
:1002E00070B5044685690068C10601D5302600E076
:1002F0002026C00707D070BDD4E9012130469047C1
:10030000206A401C20626D1EF6D570BD70B5044693
:1003100085690078C00707D170BDD4E9012120208C
:100320009047206A401C20626D1EF6D570BD70B5E6
:100330000C460546012A05D02878800600D5EA69D2
:10034000002302E0012305E05B1C934202D2E05C43
:100350000028F9D1A869E618C01AA861286A1844CB
:1003600028622846FFF7BCFF04E0D5E9012114F814
:10037000010B9047B442F8D32846FFF7C7FF70BD82
:100380002DE9F0410646002410687529314616A56E
:1003900010D000F005FA002802DA404213A507E069
:1003A00031688A0701D512A502E0490704D511A5D5
:1003B000012401E000F0FDF900210A2206F12407E2
:1003C00009E0B0FBF2FCB0FBF2F302FB1C003030A2
:1003D00078541846491C0028F3D123462A46304653
:1003E000BDE8F04100F0EEB9000000002D00000073
:1003F0002B000000200000002DE9F05F8946044634
:100400004FF0000ADFF874B1FB44C0F820A020468A
:10041000E1688847002874D0252806D0D4E9012156
:100420009047206A401C2062F1E700265F46204684
:10043000E16888472028054607DB312D05D2781969
:1004400010F8200C08B10643F1E7B00701D526F0FB
:100450000406C4F81CA00027C4F818A02A2D09D04F
:10046000284604F003FB38B304EB8708303DC8F896
:10047000185019E059F8041B204604EB87029161DB
:10048000E1688847012F054618D1E069002820DA85
:1004900026F020061DE0D8F8180000EB800005EBE0
:1004A00040003038C8F818002046E1688847054603
:1004B00004F0DCFA0028EED1012F0AD02E2D08D14D
:1004C0002046E16888477F1C0546022F46F020063B
:1004D000C4DBA069002803DA404246F00106A061AF
:1004E000F00701D026F010066C2D0BD0682D09D036
:1004F0004C2D39D06A2D35D0742D35D07A2D33D08E
:1005000016E038E0E1682F4620468847B8420546A5
:1005100009D16C2F26D04FF48060E1680643204655
:100520008847054604E06C2F1AD04FF480700643CC
:100530000DB3A5F14100192802D8203546F4006614
:100540004A462946204626604E46FFF709FE80B1FE
:1005500001280BD0F61D26F0070000F1080956E728
:100560004020E4E78020D8E70020D6E706F1040920
:100570004DE7284652E7206ABDE8F09F148300004B
:10058000032A40F2308010F0030C00F0158011F8BF
:10059000013BBCF1020F624498BF11F801CB00F897
:1005A000013B38BF11F8013BA2F1040298BF00F8EB
:1005B00001CB38BF00F8013B11F0030300F0678066
:1005C000083AC0F0088051F8043B083A51F804CBCF
:1005D000A0E80810F5E7121D5CBF51F8043B40F895
:1005E000043BAFF30080D20724BF11F8013B11F8A0
:1005F00001CB48BF11F8012B24BF00F8013B00F8E4
:1006000001CB48BF00F8012B7047431A28BF9A421C
:100610007FF6B6AF032A1044114440F2268010F052
:10062000030F1EBF11F8013D521E00F8013D10F0EE
:10063000030F7FF4F6AF11F0030300F09E82083A37
:10064000C0F00B8051F8043D083A51F804CD40F851
:10065000043D40F804CDFFF7F3BF121D5CBF51F815
:10066000043D40F8043DAFF30080D20724BF11F8E9
:10067000013D11F801CD48BF11F8012C24BF00F84D
:10068000013D00F801CD48BF00F8012C704710B5BE
:10069000203AC0F00B80B1E81850203AA0E818507A
:1006A000B1E81850A0E81850BFF4F5AF5FEA027C3B
:1006B00024BFB1E81850A0E8185044BF18C918C0AA
:1006C000BDE810405FEA827C24BF51F8043B40F84B
:1006D000043B08BF7047D20728BF31F8023B48BF30
:1006E00011F8012B28BF20F8023B48BF00F8012B6E
:1006F00070474FF000020429C0F0128010F0030C84
:1007000000F01B80CCF1040CBCF1020F18BF00F804
:10071000012BA8BF20F8022BA1EB0C0100F00DB8B3
:100720005FEAC17C24BF00F8012B00F8012B48BF11
:1007300000F8012B70474FF0000200B513469446B5
:100740009646203922BFA0E80C50A0E80C50B1F129
:100750002001BFF4F7AF090728BFA0E80C5048BF3D
:100760000CC05DF804EB890028BF40F8042B08BFDB
:10077000704748BF20F8022B11F0804F18BF00F8D7
:10078000012B704770477047704710B500F020FA92
:10079000006810BD10B5044600F01AFA046010BDE0
:1007A00009684A0501D540B27047C905FCD500B2B9
:1007B000704709684A0501D5C0B27047C905FCD524
:1007C00080B270472DE9F0470D469946924604469F
:1007D00000F124080168880604D5E06921F01001C1
:1007E000216000E00120A84201DD471B00E0002756
:1007F000A1697A1902EB0900081AA0612078C006E5
:1008000002D42046FFF76CFD002608E0D4E9012160
:100810001AF806009047206A401C761C20624E455C
:10082000F4DB2078C0060AD52046FFF759FD06E024
:10083000D4E9012130209047206A401C2062381EF4
:10084000A7F10107F4DC07E0D4E9012118F805005D
:100850009047206A401C2062281EA5F10105F3DCA8
:100860002046FFF753FD2078000602D50220BDE8A0
:10087000F0870120FBE711680268006A530501D583
:1008800008700AE0D30501D5088006E0130603D5F9
:10089000C217C1E9000200E00860012070470000B3
:1008A00001694A1C02610878704700B58FB0CDE934
:1008B00001310021059105497944CDE90310114624
:1008C0006846FFF799FD0FB000BD0000E5FFFFFF90
:1008D0000A6802F8010B0A607047D1E900239A42C6
:1008E00002D2531C0B601070704710B5436913B1EE
:1008F000AFF3008001E0FFF71AFD012010BD127870
:1009000000F124010A7000224A700122EDE711680B
:100910004FF0FF32E9E700002DE9FF5F15468A46F8
:100920000446DFF8AC80F8440027D8E900103E46C2
:10093000CDE9001010E03AF816106A4602A800F05F
:1009400033FD411C07D02178890603D5E2693918A7
:1009500091420DD80744761C2078800602D5E069C4
:10096000B84205DDAE42E6DB3AF816000028E2D1D7
:10097000A069C01BA0612046FFF7B2FCD8E90010B7
:10098000CDE90010002017E03AF818106A4602A8D6
:1009900000F00AFDB0F1FF3F81460BD000250DF1BC
:1009A000080B05E0D4E901211BF8050090476D1CF8
:1009B0004D45F7D308F10100B0428046E4DB206AE0
:1009C000384420622046FFF7A1FCBDE8FF9F0000ED
:1009D0000A7E00002DE9F0418046D21D22F0070278
:1009E0000025D2E90002F52915A614D0011E72F1E6
:1009F000000106DA0023D0EB030063EB020211A62C
:100A000008E0D8F800108B0701D50FA602E04907CF
:100A100001D50EA601251146002408F1240704E0A3
:100A200000F0DAF830323A55641C50EA0102F7D18E
:100A30002B46324621464046BDE8F041FFF7C2BE94
:100A4000000000002D0000002B000000200000002E
:100A500030B4002100F1240408E002F00705D208B8
:100A6000303542EA4372DB086554491C52EA0305FB
:100A7000F3D10468002310A2250707D5A40600D4EB
:100A800021B1C46901230DA2641EC46130BCFFF70B
:100A900099BE10B5044621461068FFF78AFE02464B
:100AA0002046BDE810400023D2E7D21D22F0070106
:100AB000D1E90023CCE70000000000003000000076
:100AC000F0B40D460188090502D5214C7C4402E0B2
:100AD0001F4C7C440E34002100F1240608E002F093
:100AE0000F071209E75D42EA03721B097754491C9C
:100AF00052EA0307F3D102780023120704D5702DC0
:100B000006D009B1022311342246F0BCFFF75ABEC9
:100B100001231034F8E770B504460D4621461068ED
:100B2000FFF747FE024629462046BDE870400023F5
:100B3000C6E7D21D22F00703D3E90023C0E703680C
:100B4000126843F0200303600823C3610023B7E762
:100B50006C7C0000431A28BF9A427FF698AD10447F
:100B600010F0030F11441EBF11F8013D521E00F892
:100B7000013D10F0030F7FF4F6AF103AC0F00A8089
:100B800010B531E91850103A20E91850BFF4F9AF08
:100B9000BDE81040530724BF31E9081020E90810D0
:100BA00044BF51F8043D40F8043D12F0030F08BF64
:100BB0007047D20728BF31F8023D48BF11F8012C19
:100BC00028BF20F8023D48BF00F8012C7047000004
:100BD00000487047D810002030B5B0F10A024FEA43
:100BE000900E71F100034EEA817EB0EB0E0061EBD6
:100BF00091014FEA101E4EEA017E10EB0E0041EB10
:100C000011114FEA102E4EEA016E10EB0E0041EB6F
:100C100011214FEA104E4EEA014E10EB0E0041EB4F
:100C20001141401841F100014FEAD00040EA417003
:100C30004FEAD10110EB80054FEA810444EA907439
:100C400044EB01046D1944EB0404521BA3414FF023
:100C5000000348BF0A3200D530BD401C41F10001FD
:100C600030BD70472DE9FF4F0C461E464FF0FF3751
:100C70008BB0D2E90001DDF860800A908A46C1F3AA
:100C80000A5505B93D46002108464FF00000BAF16B
:100C9000000F00F4400005DA00EB80004FF4400143
:100CA00001EA50004FEA9059B9F1010F00DDB94651
:100CB0000A9850EA4A000ED044F61050A5F2FF35CB
:100CC00045432F14B8F1000F1ED07542291E1EDDBA
:100CD000C9F100021CE0B8F1010F4FF0000001D093
:100CE000302103E0F24305E02154401CB042FBDB1D
:100CF00030460022002121540B99C1F80880C1E937
:100D000000200FB0BDE8F08FBD1B6D1CDEE74A462A
:100D100000DA694206A800F0DDFB06AB93E80700A5
:100D200003AB83E8070050460A9900F096FC8DE873
:100D30000700A0F500501F3800900398002D0ADD31
:100D400042F21F014A460844002303A90390684663
:100D500000F0FFFE09E0A0F500504A461F380023CE
:100D600003A90390684600F009FF8DE8070000041E
:100D7000000C03D04FF0FF30410800E01046B8F1FE
:100D8000000F03D00022009215461EE0751E05D408
:100D9000FFF722FF303262556D1EF9D5B3460122AE
:100DA000084302D000227F1C04E02078302801D1C3
:100DB00000227F1E002A099784D01DE0112D07DA3A
:100DC000FFF70AFF303262556D1C50EA0102F5D17F
:100DD000084302D00098C8B10EE00021681E05E06B
:100DE000235C625C63542254401E491C8142F7DB41
:100DF000AB46A81B401E0990002004F80B000B987E
:100E0000099AC0F80880C0E9002B7AE711264FF054
:100E1000000857E72DE9F04F88460446D21D22F01E
:100E2000070191B0D1E90001CDE90A0103F01DFDF0
:100E300002460B98C00F01D02D2007E020688107E3
:100E400001D52B2002E0202101EAC000032A0990ED
:100E500001D0072A05DB03464146204600F0FAFA96
:100E60000BE12078800601D5E06900E00620B8F1AA
:100E7000650F814606D0B8F1660F18D0B8F1670F3C
:100E800070D131E00020B9F1110F009001DB112386
:100E900001E009F101030AAA01A90CA8FFF7E2FE8B
:100EA000DDE90C70002609F10105834647E00120C9
:100EB0004B4600904FF000470AAA01A90CA8FFF783
:100EC000D1FEDDE90DB00C995D46002610B909F19F
:100ED00001000D18B9EB050003D4C0F1FF3609F18C
:100EE0000105A5EB09002BE0B9F1010F01DA4FF084
:100EF00001090020B9F1110F0090484601DD1123CE
:100F000000E003460AAA01A90CA8FFF7ABFEDDE941
:100F10000C704D4600268346207800070AD4AB4566
:100F200000DA5D4601A8012D04DD411911F8011C0C
:100F3000302907D04F4502DA17F1040F04DA0120F7
:100F400082460FE06D1EEEE7002F02DCED1B3E44F3
:100F500003E0781CA84200DD7D1CB81B00F1010AEB
:100F60004FF000472078000703D4AA4501DB4FF07B
:100F7000FF3A0021B7F1004F0DF143088DF84310FF
:100F800024D002202B23002F01DA7F422D230A21B7
:100F9000021EA0F1010000DC5FB197FBF1FC97FBA2
:100FA000F1F201FB1C7C17460CF1300C08F801CD66
:100FB000EEE7A8F1010003702188090501D545215C
:100FC00000E06521A0F1010800F8011C09980FA9B3
:100FD000A1EB0807FF1D00B10120411901EBEA70E8
:100FE000A1693844081A401EA0612078C00602D4C6
:100FF0002046FFF775F9099828B1D4E901219047F7
:10100000206A401C20622078C00622D52046FFF7C7
:1010100067F91EE0002E04DBB34502DD01A8805D08
:1010200000E03020D4E901219047206A401C206272
:10103000761CAAF101005FEA000A0AD100F006FA64
:10104000C0680168405CD4E901219047206A401CD7
:101050002062281EA5F10105DCDC07E0D4E90121AE
:1010600018F8010B9047206A401C2062381EA7F137
:101070000107F3DC2046FFF749F9032011B041E6F0
:101080002DE9F04F04460D46D21D22F0070089B02D
:10109000D0E900974846394603F0E7FB0246F80FCF
:1010A00001D02D2307E02068810701D52B2302E022
:1010B000202101EAC0038DF820300BB1012000E0AF
:1010C0000020032A824601D0072A04DB2946204655
:1010D00000F0C0F93FE12078800601D40D2500E042
:1010E000E569C7F30A560D2D49DA00214FEA175B6F
:1010F00008464FF00000002F00F4400007DA00EB34
:1011000080004FF4400100EBD07001EA60008115CF
:10111000012901DD4FF0FF3100224FEA850CBCF1BF
:10112000180F06D31346ACF118004FF08052C2409E
:1011300003E04FF4801323FA0CF30CF10C0CBCF118
:10114000200F04D3ACF1200C09FA0CF001E007FAEF
:101150000CF000294FF0004801DD18B90FE00ED166
:1011600040450CD319EB02095F4121B9404502D13A
:101170009F4329EA0209BBEB175F00D0761C208849
:10118000000502D57B48784402E07A487844193853
:1011900008AA302302F80A30037C0AF10101002E6C
:1011A0000AF1020A53546A4602DC4FF0300101E0B2
:1011B0004FF031014FF001088DF8001002D0A6F277
:1011C000FF3603E059EA470100D06B4E002D02DCE8
:1011D0002178090704D54FF002082E218DF801105F
:1011E000C44600210BE0C7F303433F01C35C491C25
:1011F0006D1E02F80830052908F1010801DA002DFA
:10120000F1DC00210CE000EB1973491C1B786D1E0A
:10121000082902F808304FEA091908F1010801DA33
:10122000002DF0DC21688B0602D516E0A8F101083C
:10123000E04505DD02EB080313F8013C302BF5D047
:10124000B8F1000F09DD02EB080313F8013C2E2B67
:1012500003D1090701D4A8F10108002D05DD3E21C5
:1012600002F808106D1E08F10108407C002E02F8FB
:10127000080008F1010804DA2D20764202F808007F
:1012800002E02B2002F808000A214FF47A7086420F
:1012900008F101080BDB96FBF0F3303302F808305D
:1012A00096FBF0F308F1010800FB136601E0642EE1
:1012B0000CDB642096FBF0F3303302F8083096FB29
:1012C000F0F308F1010800FB136601E00A2E06DBCB
:1012D00096FBF1F0303002F8080008F1010896FBA7
:1012E000F1F001FB1060303002F80800A16908F14C
:1012F000010808EB050202EB0A00081AA061207839
:10130000C00602D42046FEF7EBFF216A08AE01EBCF
:101310000A00206204E0D4E9012116F8010B90478D
:10132000BAF1010AF7D22078C00602D52046FEF7AE
:10133000D7FF6E4609E016F8010B3E280FD0D4E91E
:1013400001219047206A401C2062B8F10108F2D2C6
:101350002046FEF7DBFF09B00320BDE8F08F206ACE
:101360002844206203E0D4E90121302090476D1E1B
:10137000EBD3F8E70D76000002FCFFFF10B54369E0
:1013800013B1AFF3008001E0FFF7C6FA012010BDF2
:10139000128800F1240182840022C2840122EDE738
:1013A00011684FF0FF32E9E770B516460C46054666
:1013B00000F044F8036893F80101012806D0FF2CDF
:1013C0000FD8185D68B101202C7070BDD3F80701EB
:1013D0003246214603F2071303442846BDE8704015
:1013E00018474FF0FF3070BD00487047D8100020FC
:1013F0007546FFF7F9FFAE4605006946534620F0F3
:101400000700854618B020B5FEF722FFBDE8204052
:101410004FF000064FF000074FF000084FF0000BB0
:1014200021F00701AC46ACE8C009ACE8C009ACE863
:10143000C009ACE8C0098D467047000010B500F047
:1014400005F8001D10BD00BF1D600000004870477A
:10145000F81000202DE9F0411F46044603260168DC
:10146000072A01F4006004DB08B116A505E016A503
:1014700003E008B115A500E015A521F010002060DB
:10148000A069C01EA0610FB1401EA0612046FEF7FA
:1014900027FF4FB1D4E9012138469047206A401C0C
:1014A0002062C01C206206E0206AFAE7D4E901212C
:1014B00015F8010B9047761EF8D22046FEF726FF5E
:1014C000BDE8F0814E414E006E616E00494E46000F
:1014D000696E66002DE9F047814616468AB03548A8
:1014E00078440DC88DE80D0032487844801C03AC68
:1014F0000DC884E80D0041F69B300844372190FB6D
:10150000F1F290FBF1F5A5F1800501FB12041B3C03
:1015100002D56442012000E00020DFF898A0804658
:101520000027FA44AAF1BE0A0EE0E0070AD03246CC
:10153000684607EB470101230AEB810100F01EFB1F
:101540008DE8070064107F1C002CEED1194F7F44FA
:10155000AE3F19E0E80715D007EB04100DF1180AAB
:1015600090E80E008AE80E00C068F04201D1981998
:1015700008903246012306A903A800F0FFFA03AB46
:1015800083E807006D10641C002DE3D14FF00103C8
:1015900032466946B8F1000F03A802D000F0D9FA2C
:1015A00001E000F0EBFAC9E90001C9F808200AB02F
:1015B000BDE8F0874473000010B50446AFF3008027
:1015C0002046BDE81040FEF72EBE00004FF0013C63
:1015D00050F8042B51F8043B9A4221D1A2EB0C03A2
:1015E000934313EACC1317D150F8042B51F8043B62
:1015F0009A4215D1A2EB0C03934313EACC130BD1FF
:1016000050F8042B51F8043B9A4209D1A2EB0C0389
:10161000934313EACC13DBD04FF00000704700BFB8
:10162000D01A01BAB1FA81F101F0180122FA01F0E1
:10163000CB40C1F12001DBB2C0B2C01A2CFA01F3D9
:10164000D11A914311EAC311E6D17047014918201C
:10165000ABBEFEE72600020070475FEA400C08BF01
:1016600091F0000F4FEA8C234FEAC12243EA515117
:101670004FEA1C5018BF00F5F0404FEA300018BF89
:1016800041F000415FEA6C5C00F02980BCF1FF3F53
:1016900008BF40F080407047130C06BF12044FF0A3
:1016A000100C4FF0000C130E04BF12020CF1080CCA
:1016B000130F04BF12010CF1040C930F04BF92002E
:1016C0000CF1020CD30F04BF52000CF1010C1146B7
:1016D0004FF00002A0F11F00A0EB0C00704711F0CA
:1016E000004F08BF704731F000413FF4D5AF0B0CFD
:1016F00006BF09044FF0100C4FF0000C0B0E04BF96
:1017000009020CF1080C0B0F04BF09010CF1040CC9
:101710008B0F04BF89000CF1020CCB0F04BF4900F2
:101720000CF1010CCCF12003A0EB0C0022FA03F326
:1017300002FA0CF241EA030100F10100704720F0C7
:101740007F4C80EA030023F07F47ACEB070303F5EF
:101750007C5300F0004003F1FF032DE980494FEA7C
:10176000154B09B44FEA144325EA0B4E24EA03480B
:101770000FF2042606EB132749083E785FEA32028F
:1017800003FB0667C7F5000707FB06F64FEA543769
:101790004FEAD64606F1020607FB066CCCF1005C68
:1017A0004FEA1C472CEA074C07FB06F40CFB06F536
:1017B00004EB15464FEA961634BF00204FF0004068
:1017C0004FEAD13706FB07FC4FEA1C4C0CFB0BF72A
:1017D000D21B03FB0CF761EB07010CFB0EF7B0EB20
:1017E000074072EB17420CFB08F734BFA2EB07422D
:1017F000B2EB074261EB17414FEA0C444FEA910705
:1018000006FB07FC4FEA1C4C0CFB0BF7B0EBC74088
:1018100072EB573203FB0CF734BFA2EBC742B2EBBB
:10182000C74261EB57310CFB0EF7B0EBC70072EB10
:1018300057720CFB08F734BFA2EBC702B2EBC7022A
:1018400061EB5771039F4FEA816141EA921104EB0A
:10185000CC044FEAD1374FEA826206FB07FC42EA2A
:1018600090124FEA80604FEA1C4C0CFB0BF7D21B26
:1018700003FB0CF761EB07010CFB0EF7B0EB074025
:1018800072EB17420CFB08F734BFA2EB0742B2EB36
:10189000074261EB17414FEA8C554FEA910704EB81
:1018A0009C2406FB07FC4FEA1C4C0CFB0BF7B0EB2F
:1018B000C74072EB573203FB0CF734BFA2EBC742B1
:1018C000B2EBC74261EB57310CFB0EF7B0EBC70030
:1018D00072EB57720CFB08F734BFA2EBC702B2EBF6
:1018E000C70261EB577115EB4C254FEA816141EA64
:1018F00092114FEA82624FEAD13742EA901206FB18
:1019000007FC44F100044FEA80604FEA1C4C0CFBDA
:101910000BF7D21B03FB0CF761EB07010CFB0EF777
:10192000B0EB074072EB17420CFB08F734BFA2EB99
:101930000742B2EB074261EB174115EB1C154FEA6A
:10194000813141EA92414FEA823242EA90424FEAC3
:1019500080304FEA0C7644F1000448EA03434EEA33
:101960000B484FF0000EB2EB080C71EB030724BFDD
:10197000624639464EEB0E0E4FF0000B00185241F6
:1019800049414BEB0B0BB2EB080C71EB03077BF1FE
:10199000000B24BF624639464EEB0E0E4FF0000B93
:1019A0000018524149414BEB0B0BB2EB080C71EBA9
:1019B00003077BF1000B24BF624639464EEB0E0E47
:1019C00051EA020718BF46F0010616EB0E7655F1F4
:1019D000000254F1000103D5BDE88901BDE800888B
:1019E000BDE88901BDE80048B619524141EB01014B
:1019F000A3F10103704780807F7E7D7C7B7A7978BC
:101A0000777676757473727171706F6E6E6D6C6CC3
:101A10006B6A6A6968686766666564646363626165
:101A20006160605F5F5E5E5D5D5C5C5B5B5A5A59E6
:101A30005958585757565655555554545353525252
:101A40005251515050504F4F4F4E4E4D4D4D4C4CAA
:101A50004C4B4B4B4A4A4A494949484848474747F3
:101A60004746464645454544444444434343434230
:101A7000424242414141002B9C4630D477002BD05A
:101A80001CB54FEA370703B44FF010004FF01001B8
:101A9000BAF1000F06D0BCF1000FDCBF40F0080027
:101AA00040F008014FF000000FBCBDE810400BF102
:101AB000010BBBF1010F08BF5FEA170722BF12F14C
:101AC000010211F101014FF0004143F1000300F068
:101AD000004043EA00007047F9D35708D0E746EAD0
:101AE000064613F1400F4FEA16461FDD13F1200F93
:101AF000DFBF16430A46002120335B42BED0C3F14C
:101B0000200746EA064602FA07F74FEA164646EA73
:101B10000706C3F1200722FA03F201FA07F721FAB8
:101B200003F14FF0000342EA0702A7E746EA020684
:101B300046EA06464FEA164646EA0106BCBF46EAB2
:101B40000646360C4FF000034FF000024FF0000144
:101B500094E72DE9804C9A46934670B491E838009A
:101B600007C831EA400C48BF34EA430C03D5FFF7FD
:101B7000E6FDFFF780FFF0BCBDE8008C2DE9804C4E
:101B80009A46934670B491E8380007C810F0804F29
:101B900008BF13F0804F03D100F005F8FFF76BFF8B
:101BA000F0BCBDE8008C20F07F4780EA030023F002
:101BB0007F4C07EB0C03A3F57C5300F00040A3F12E
:101BC000FE0392F0000F00F0B38095F0000F00F0DC
:101BD00077802DE901494FEA11404FEA144621EA86
:101BE000004800FB06FC24EA064708FB06F607FB54
:101BF00008F800FB07F718EB06484CEB164C4FEAC9
:101C0000124B18EB07484FEA15464CEB174022EAF7
:101C10000B4E0BFB06FC25EA06470EFB06F607FB00
:101C20000EFE0BFB07F71EEB064E4CEB164C4FF06F
:101C300000061EEB074E4CEB174B18EB0B0840F160
:101C4000000018EB0E0B58EB000840F100008F1A53
:101C50004FF000013CBFC943661B14BFB5EB040C39
:101C600000213CBFC943F61B4FEA17444EEA8E0ED3
:101C700027EA04454FEA1C4704FB07622CEA074C9D
:101C800005FB07F70CFB05F604FB0CFC16EB0746FF
:101C900042EB174216EB0C4642EB1C421BEB0606CE
:101CA00058EB0202414146EA9E0601D5BDE8018992
:101CB000B619524141EB0101A3F10103BDE80189CD
:101CC0004FEA14454FEA114724EA054621EA074C3A
:101CD00005FB07F406FB07F70CFB06F105FB0CFC04
:101CE00011EB074144EB17444FEA124711EB0C414B
:101CF00044EB1C4422EA074C05FB07F206FB07F7FE
:101D00000CFB06F605FB0CFC16EB074642EB1742F4
:101D100016EB0C4642EB1C456A1854F1000148BF13
:101D20007047B619524141EB0101A3F1010370471D
:101D300095F0000F37D04FEA11424FEA144721EADD
:101D4000024624EA074C02FB07F106FB07F70CFBEF
:101D500006F402FB0CFC14EB074441EB17414FEA7D
:101D6000154714EB0C4441EB1C4125EA074C02FBE0
:101D700007F506FB07F70CFB06F602FB0CFC16EB5F
:101D8000074645EB174516EB0C4645EB1C4212196E
:101D900051F1000148BF7047B619524141EB0101B2
:101DA000A3F1010370474FEA14454FEA114724EAB3
:101DB000054621EA074C05FB07F106FB07F70CFB7C
:101DC00006F24FF0000605FB0CFC12EB074241EB5C
:101DD000174112EB0C4251EB1C4148BF704792185F
:101DE00041EB0101A3F101037047000070B5044607
:101DF00000688168C943C90717D1816821F00101D2
:101E0000816000F053FE05460AE000BF00F04EFE80
:101E1000401B022804D920688068C043C00706D050
:101E200020688068C043C007F0D0002070BDA06A61
:101E300040F01000A062E06A40F00100E062012082
:101E400070BD10B50146406A826A12F0500F05D08D
:101E5000006A026BBDE8104008461047816A41F4F1
:101E60000071816201688968C1F3424107290CD180
:101E7000017B51B9816A21F480718162816AC90450
:101E800003D4816A41F00101816200F05BF910BD69
:101E900010B5406A816A41F040018162C16A41F037
:101EA0000401C16200F06AF910BD10B5406A00F08B
:101EB00057F910BDF8B50026044600960068816801
:101EC000C943C9072DD0816841F0010181601648DE
:101ED00016490068B0FBF1F000E0401E00900028B9
:101EE000FBD100F0E3FD054616E000BF00F0DEFD8B
:101EF000401B022810D920688068C043C0070BD05F
:101F0000A06A40F01000A062E06A40F00100E062C8
:101F100084F824600120F8BD20688068C043C007B1
:101F2000E4D10020F8BD00000C00002040420F006A
:101F3000FEE70000014800F023BB0000080100207C
:101F400030B590F840500124AC40C56B6C6004681B
:101F500063604368102B036803D099600068C26017
:101F600030BD9A600068C16030BD704772B6FEE750
:101F7000F8B500250446009590F8240001280BD000
:101F8000012084F824002046FFF730FF2046FFF7A9
:101F900091FF060002D050E00220F8BDA06A20F4B4
:101FA000885040F00200A062022001F091F825491B
:101FB0000968B1FBF0F0400000E0401E00900028EE
:101FC000FBD12068816841F00801816000F06EFD5E
:101FD000074608E000F06AFDC01B0A2803D9206804
:101FE0008068000715D4206880680007F2D4206854
:101FF000816841F00401816000F058FD074612E05D
:1020000000F054FDC01B0A280DD9206880684007E5
:1020100009D5A06A20F0020040F01000A06284F808
:1020200024500120F8BD206880684007E8D4A06AE9
:1020300020F0020040F00100A06284F824503046F5
:10204000F8BD00000C000020F8B50024009490F8C2
:1020500024202546012A12D0012280F824204A6833
:102060001F23072A0DD20668776B521E02EB8202ED
:1020700093409F430B6893401F43776319E002200E
:10208000F8BD06680D2A0AD2376BD21F02EB820216
:1020900093409F430B6893401F43376309E0F76AFF
:1020A0000D3A02EB820293409F430B6893401F431B
:1020B000F7620A68072306680A2A0AD3F7680A3A09
:1020C00002EB420293409F438B6893401F43F760AB
:1020D00008E0376902EB420293409F438B689340CC
:1020E0001F4337610A68102A01D0112A20D1124BF0
:1020F00002689A4217D193681B0219D4936843F47B
:10210000000393600968102912D10C490C4A096830
:10211000B1FBF2F101EB8101490000E0491E0091A1
:102120000029FBD104E0816A41F020018162012491
:1021300080F824502046F8BD002401400C00002007
:1021400040420F000449884205D104480121017032
:102150000169491C01617047D800002094000020EB
:102160000449884205D10448002101700169491CD5
:1021700001617047D8000020940000200349884284
:1021800002D103490120487070470000D8000020A8
:10219000940000202DE9F0414FF0000704003D4677
:1021A0007ED0A06A002628B9E66284F82460204622
:1021B00000F07EF82046FFF719FEA16AC90600D498
:1021C00020B1A06A40F01000A06269E0A16A21F489
:1021D000885141F00201A1626268E169237B0A43F0
:1021E00047EA43010A43A1684FF48077B94209D016
:1021F000012907D05FF0000194F814C0BCF1010F71
:1022000002D00AE03946F7E7F3B1A36A43F02003AE
:10221000A362E36A43F00103E3622368D3F804C0D6
:102220002CF4694C4CEA010CC3F804C021688B689B
:10223000DFF870C003EA0C0313438B60A168B94256
:102240000BD0012909D00CE0DFF85CC0A3690CEBCE
:1022500043330B4343F40061DFE7218A0D05A5F505
:1022600080152168CB6A23F470032B43CB6221686D
:1022700089680E4B1940914208D1E662A16A21F0AB
:10228000020141F00101A162BDE8F081A06A20F0E5
:10229000020040F01000A062E06A40F00100E0623D
:1022A0000120F1E7FDF7E1FF00E0FFFFFE0E1FFF59
:1022B00070B586B0002506460095019502950395F8
:1022C0000068194988422DD11849886940F4007086
:1022D0008861886900F400700490886940F0040007
:1022E00088618869694600F004000490032000902A
:1022F00001900F4800F0E0FA0F4C0E48C4E90005C9
:102300008020C4E9025040002061800060612020EC
:10231000C4E90605204600F0DDF908B1FFF726FE06
:102320003462666206B070BD0024014000100240B5
:102330000008014008000240080100202DE9F04794
:10234000894604463B4900683B4F0E1D9046884233
:1023500001D0B84207D1306810F4702F03D00125A6
:102360002846BDE8F08794F8240001280CD001200D
:1023700084F824002046FFF79DFD05004FF0000083
:1023800004D084F82400EBE70220EAE7A16A40F6D3
:102390000162914341F48071A1622168B94218D170
:1023A000326812F4702F14D0A16A41F48011A16236
:1023B0003168490505D5A16A21F4005141F48051E5
:1023C000A162A16AC9040AD5E16A21F00601E162AD
:1023D00006E0A26A22F48012A2624968E9E7E0629C
:1023E00084F82400216A15488862216A1448C8626A
:1023F000216A1448086321686FF0020008602068B1
:10240000816841F480718160216843464A464C31BD
:10241000206A00F08DF920688168C1F342410729E4
:10242000816803D041F48011816099E741F4A001F3
:10243000FAE700000024014000280140431E000884
:10244000AB1E0008911E000810B5044690F8240049
:10245000012807D0012084F824002046FFF7C6FC9D
:1024600010B113E0022010BD21688A6822F4807246
:102470008A60216A91F82120022A07D1084600F0DB
:102480000EF8A16A30B141F04001A162002184F848
:10249000241010BD21F4885141F00101F5E710B579
:1024A00090F821100022022905D00421816380F8D0
:1024B0002020012010BD01680B6823F00E030B6083
:1024C00001680B6823F001030B6090F84030C46B87
:1024D000012101FA03F3636080F8211080F82020C5
:1024E000104610BD10B590F821100024022903D029
:1024F0000421816301243DE001680A6822F00E0294
:102500000A6001680A6822F001020A601A4A01683A
:10251000914201D1012121E0174A1432914201D1A7
:1025200010211BE0144A2832914201D1891515E08F
:10253000114A3C32914201D189140FE00E4A5032C7
:10254000914202D14FF4803108E00B4A643291424B
:1025500002D14FF4801101E04FF08071064A083A31
:102560005160012180F82110002180F82010416B7A
:1025700001B18847204610BD08000240806B7047BB
:102580002DE9F05FC16B0C6801680B68D0F840C0A2
:10259000042202FA0CF2494DDFF824A1494E4A4FB9
:1025A000DFF828B1DFF828E122422CD05A072AD5DB
:1025B0000A68920603D40A6822F004020A600168DD
:1025C000A94201D1042219E0514501D1402215E070
:1025D000B14202D14FF4806210E0B94202D14FF40F
:1025E00080420BE0594502D14FF4802206E071454C
:1025F00002D14FF4800201E04FF080622F49083988
:102600004A60C16A3BE04FF0020808FA0CF818EA89
:10261000040F4FF000094FF0010235D05FEA8378D4
:1026200032D50B689B0605D40B6823F00A030B60B8
:1026300080F821200168A94201D1022219E0514508
:1026400001D1202215E0B14202D14FF4007210E016
:10265000B94202D14FF400520BE0594502D14FF478
:10266000003206E0714502D14FF4001201E04FF054
:102670000072124908394A6080F82090816A002966
:102680001AD0BDE8F05F0847082505FA0CF5254289
:1026900012D01B0710D50B6823F00E030B6090F8C7
:1026A0004010C36B02FA01F15960826380F8212067
:1026B00080F82090016BE2E7BDE8F09F080002403F
:1026C0001C0002403000024044000240580002401A
:1026D0006C00024030B528B308C8134914221944CD
:1026E000B1FBF2F18900C163104981630221417796
:1026F0001A6843F6F0718A43D0E900142143D0E907
:1027000002452C43214304692143446921438469E0
:10271000214311431960002141630122427701776F
:10272000084630BD012030BDF8FFFDBF000002406B
:1027300070B5044690F82000002501280CD0012037
:1027400084F8200094F821600020012E06D084F83F
:1027500020000225284670BD022070BD022684F8A4
:102760002160A0632068066826F001060660204606
:10277000FFF7E6FBE06A00282068016802D041F01C
:102780000E0106E021F0040101602068016841F0BB
:102790000A0101602068016841F001010160D9E788
:1027A0002DE9F04300233E4F0F2573E001229A40AC
:1027B0000A406DD023F00304E619D6F808809C0780
:1027C0004FEA147C05FA0CF909EA0804DFF8D48012
:1027D000404502D14FF0000816E0DFF8CC804045BC
:1027E00002D14FF001080FE0DFF8C080404502D170
:1027F0004FF0020808E0DFF8B880404502D14FF002
:10280000030801E04FF0040808FA0CF8A04522D1B3
:10281000284CD4F800C02CEA020CC4F800C0241DD7
:10282000D4F800C02CEA020CC4F800C0214C0C34CF
:10283000D4F800C02CEA020CC4F800C0241FD4F85D
:1028400000C02CEA020CC4F800C0D6F808C02CEA7C
:10285000090CC6F808C0FF2A01D8064601E000F1BD
:1028600004064FEA830401D9A4F12004D6F800C07D
:1028700005FA04F82CEA080C4FF0040808FA04F8EA
:102880004CEA080CC6F800C0C46824EA0204C4601C
:1028900003F1010331FA03F288D1BDE8F0830000AF
:1028A0000000014000080140000C01400010014000
:1028B00000140140000401402DE9F84FDFF8B89101
:1028C0000024A9F1040B23460F2709F1040AABF1F8
:1028D000040EC9E00125A5402A40AA427DD1674ED9
:1028E000D1F804C0ACEB0608B44532D014DCBCF11E
:1028F000030F3AD009DCBCF1000F2AD0BCF1010F64
:102900001CD0BCF1020F31D11DE0BCF1110F17D06A
:10291000BCF1120F2AD119E0B8F5881F19D006DCD6
:10292000B8F5803F15D0B8F5801F1FD111E0B8F57C
:10293000001F0ED0B8F5041F18D10AE0CB6815E0CF
:10294000CB681B1D12E0CB6808330FE0CB680C335B
:102950000CE08B682BB1012B4FF0080303D04561CD
:1029600004E0042302E0056100E00023FF2A01D80F
:10297000064601E000F104064FEA840501D9A5F1FD
:102980002005D6F8008007FA05FC28EA0C0803FAAF
:1029900005F548EA0508C6F800804D68ED0062D5E7
:1029A000374DAE6946F00106AE61AD6924F003060D
:1029B00005F001050095334D06EB050CDCF80850D9
:1029C000A607360F07FA06F825EA0805DFF8B880EB
:1029D000404503D14FF0000817E044E0DFF8AC8039
:1029E000404502D14FF001080FE0DFF8A4804045D8
:1029F00002D14FF0020808E0DFF89880404502D18C
:102A00004FF0030801E04FF0040808FA06F848EA1E
:102A10000508CCF808804D68D9F80060ED024D46F5
:102A200001D5164300E096432E604D68DAF8006049
:102A3000AD02554601D5164300E096432E604D6821
:102A4000DBF80060AD035D4601D5164300E0964318
:102A50002E604D68DEF80060ED03754601D5164323
:102A600000E096432E60641C0D682A46E5407FF422
:102A700031AFBDE8F88F00000804014000001110DC
:102A8000001002400000014000080140000C01401D
:102A900000100140001401408068084000D001206F
:102AA00070470AB1016170470904FBE7014880687B
:102AB000704700000000002010B5040013D024204F
:102AC00084F83D002068016821F001010160204682
:102AD00000F01CFA0020206484F83D0044F8300F18
:102AE000A073207310BD012010BD000070B504005C
:102AF00025D094F83D00002520B984F83C502046AC
:102B000000F020FA242084F83D002068016821F0BC
:102B1000010101602068016841F400410160206802
:102B2000016821F40041016000F030FC4D4A616809
:102B3000914201D84C4900E04C49884201D2012021
:102B400070BD4B492368B0FBF1F15E6826F03F068B
:102B50000E435E606368934206D94FF496735943FF
:102B60004FF47A73B1FBF3F12368491C1E6A26F017
:102B70003F06314319626168914210D84900401EF6
:102B8000B0FBF1F2521CC2F30B02042A01D2042062
:102B900022E0B0FBF1F0401CC0F30B001CE0A26887
:102BA000F2B301EBC10303EB0116431EB3FBF6F3D3
:102BB0005B1C43F480431B0549D092B301EBC10277
:102BC00002EB0111401EB0FBF1F0401CC0F30B0002
:102BD00040F4804040F400402168CA694CF6FF731D
:102BE0009A431043C861D4E9071001432068026882
:102BF00022F0C00211430160D4E9030101432068BF
:102C0000826848F2FF339A4311438160D4E9050199
:102C100008432168CA6822F0FF021043C86001E03F
:102C20000EE016E02068016841F0010101602564B2
:102C3000202084F83D00256384F83E50002070BDBC
:102C400001EB4106431EB3FBF6F35B1CB3E7012027
:102C5000C2E701EB4101401EB0FBF1F0401CC0F3A4
:102C60000B00B7E7A086010080841E0000093D002C
:102C700040420F002DE9FF4F81B089460446FFF71F
:102C800015FF054694F83D004FF0000820287DD13F
:102C90001923012250492046009501F03FFA0028EF
:102CA00074D194F83C00012870D0012084F83C00D5
:102CB00020680168C90703D1016841F00101016082
:102CC0002068016821F400610160242084F83D003F
:102CD000002626644148E0624FF0011B202720684F
:102CE000016841F480710160009500225946204638
:102CF000049B01F013FA50B120680068C00502D5AA
:102D00004FF400702064032005B0BDE8F08F216807
:102D100009F0FE000861FFF7C9FE21680546486911
:102D20004969C0F34000C1F380214FF0A00A0FE0D1
:102D3000FFF7BCFE411B0498814200D808B984F813
:102D40003DA0216848694969C0F34000C1F3802172
:102D500094F83D20A02A02D008B90029E8D084F8D0
:102D60003D7020684169C943890716D4016841F460
:102D700000710160206841698069192301221649A8
:102D80002046009501F0CAF9B8B900E021E084F8C6
:102D90003D7084F83C600020B6E7016841F40071A2
:102DA000016021686FF480604861192301220A499B
:102DB0002046009501F0B2F908B10120A4E703987C
:102DC00008F1010880458AD384F83D7084F83C609E
:102DD000F3E7022098E70000020010000000FFFF68
:102DE0002DE9F84F1F4690468A460446DDF82890A4
:102DF000FFF75CFE054694F83D0020287FD119239B
:102E0000012240492046009501F088F9002876D13A
:102E100094F83C00012872D0012084F83C0020681E
:102E20000168C90703D1016841F001010160206810
:102E3000016821F400610160212084F83D00102028
:102E400084F83E0000262664C4F824806785608DDF
:102E500020852D48E0622B464A465146204601F027
:102E6000E3F890B9206841698069009036E02A460D
:102E70004946204601F0F8F950B1206C042804D1ED
:102E80002068016841F4007101600120BDE8F88FFD
:102E9000606A216800780861606A401C6062618D28
:102EA000491E6185218D491E89B221852268536999
:102EB000DB435B070BD451B100781061606A401CA2
:102EC0006062608D401E6085208D401E20852A46F0
:102ED0004946204601F0F6F80028CED1208D002882
:102EE000C5D154F83D0B016841F400710160202008
:102EF00004F81E09E67766770020C7E7FFE702209F
:102F0000C4E70000020010000000FFFF10B50068D9
:102F1000094988420FD10948C16921F40011C161F2
:102F2000074C40212046FFF73BFC2046BDE81040FF
:102F30008021FFF735BC10BD005400400010024056
:102F4000000C014010B586B0002100910191029162
:102F5000039100680F4988421AD10F4CA06940F0D4
:102F60000800A061A069694600F008000490C02034
:102F7000009012200190032003900848FFF79CFC6A
:102F8000E06940F40010E061E06900F40010049092
:102F900006B010BD0054004000100240000C01407B
:102FA0000248816802781144816070470000002067
:102FB000074810B5016841F010010160032000F0DE
:102FC00075F80F2000F006F800F024F8002010BD7E
:102FD0000020024070B50D4D04464FF47A712878F8
:102FE000B1FBF0F00A490968B1FBF0F000F02EFDEA
:102FF00048B9102C07D200222146501E00F036F8A6
:1030000000206C6070BD012070BD00000000002039
:103010000C0000200C4808B5816941F00101816174
:10302000816901F001010091C16941F08051C161E4
:10303000C06900F0805000900448416821F0E061D0
:1030400041F00071416008BD0010024000000140E5
:10305000002809DB00F01F02012191404009800097
:1030600000F1E020C0F8001170470000F0B40E4BF2
:103070001B680C46C3F30223C3F10705042D00D9D6
:103080000425191D072901D2002300E0DB1E0126BB
:1030900006FA05F1491E214099409E40761E1640D1
:1030A0003143F0BC01F00FBC0CED00E0064900F02C
:1030B000070208684FF6FF03184040EA0220034A5F
:1030C00010430860704700000CED00E00000FA05B6
:1030D00010B501460020234C012922D0022939D005
:1030E00010291DD161682268D20119D51E48C1F38B
:1030F0008342C903805C0AD561681B4AC1F3404121
:10310000921E515C194AB2FBF1F1484301E01849A3
:1031100048436168490203D440000321B0FBF1F049
:1031200010BD226AC2F30121012903D1920701D502
:10313000C80310BD022905D1626A920702D549F67B
:10314000404010BD0329FCD121688903F9D54FF215
:10315000244010BD00F02AF96168C1F38131491C97
:103160004900DBE700100240767C000800127A007C
:1031700000093D002DE9F84305460078354CC007AD
:1031800054D0E0690026C00008D4E06940F08050C7
:10319000E061E069012600F0805000902E4801684F
:1031A000C90512D40168804641F480710160FFF7BF
:1031B0007DFC074605E000BFFFF778FCC01B6428D4
:1031C00023D8D8F80000C005F6D5206A10F4407066
:1031D00021D0A98801F4407181421CD0206A1F4986
:1031E000012220F440700A6000220A602062C007B9
:1031F00011D0FFF75BFC074641F2883808E000BFBA
:10320000FFF754FCC11B414502D90320BDE8F883F8
:10321000206A8007F4D5206A696820F4407008436A
:1032200020621EB1E06920F08050E06128788007BC
:1032300005D56068A96820F440400843606028789C
:10324000C00605D56068E96820F480000843606026
:103250000020DBE7001002400070004040044242C2
:103260002DE9F0470F46050061D0434E306800F06D
:103270000700B84209D2306820F0070038433060B8
:10328000306800F00700B84251D128683B4C8107F4
:1032900012D5400703D5606840F4E060606028788C
:1032A000000703D5606840F4605060606068A968FA
:1032B00020F0F000084360602878C00728D06868D4
:1032C000012810D02168022810D0890700292EDAA1
:1032D000616821F0030101436160FFF7E7FB80466D
:1032E00041F288390DE021688903EFE78901EDE7B4
:1032F000FFF7DCFBA0EB0801494502D90320BDE83C
:10330000F0876068696800F00C00B0EB810FEFD1C6
:10331000306800F00700B8420BD9306820F0070091
:1033200038433060306800F00700B84201D0012017
:10333000E5E72878400705D56068E96820F4E06093
:10334000084360602878000706D56068296920F482
:10335000605040EAC100606000F038F86168084AD7
:10336000C1F30311515CC840064908600648006873
:10337000FFF730FE0020C2E70020024000100240AC
:10338000867C00080C000020040000200448054949
:1033900000684968044AC1F30221515CC840704783
:1033A0000C00002000100240967C000804480549EB
:1033B00000684968044AC1F3C221515CC8407047A3
:1033C0000C00002000100240967C00080E4A516854
:1033D0000E4801F00C03042B11D0082B0FD10C4820
:1033E000C1F38343C903C05C0AD55168084AC1F3DD
:1033F0004041921E515C054A5043B0FBF1F07047CA
:1034000004494843704700000010024000127A004F
:10341000647C000800093D002DE9F84F040070D0DD
:103420002078C04DC00749D06868C0F381000128EA
:1034300007D06868C0F38100022809D16868C0031A
:1034400006D52868800339D560680028E7D035E0C4
:103450006068B0F5803F0BD010B1B0F5A02F11D04F
:10346000286820F480302860286820F4802002E05A
:10347000286840F480302860606890B1FFF716FB40
:1034800006460AE0286840F480202860F0E700BF84
:10349000FFF70CFB801B642873D828688003F7D5DE
:1034A0000CE0FFF703FB064605E000BFFFF7FEFA5E
:1034B000801B6428F0D828688003F7D420789A4EBF
:1034C00080074FF001094FF0000839D5686810F007
:1034D0000C0F07D06868C0F38100022809D1686822
:1034E000C00306D42868800714D52069012808D1B4
:1034F00010E02069B0B1C6F80090FFF7D7FA074690
:1035000005E00AE1FFF7D2FAC01B0228C4D82868F8
:103510008007F7D52868616920F0F80040EAC1000B
:1035200028600DE0C6F80080FFF7C0FA074604E007
:10353000FFF7BCFAC01B022823D828688007F7D4FD
:10354000207800072CD57948A169D9B1C0F800903E
:10355000FFF7ACFA074604E0FFF7A8FAC01B022801
:103560000FD8686A8007F7D571484FF4FA510068A0
:10357000B0FBF1F0009000BF0098411E0091FAD21C
:103580000EE080E0C0F80080FFF790FA074604E004
:10359000FFF78CFAC01B022875D8686A8007F7D439
:1035A0002078400760D5E8690027C00008D4E869A2
:1035B00040F08050E861E869012700F080500090F9
:1035C0005C480168C90513D40168834641F48071E1
:1035D0000160FFF76BFA824606E000BFFFF766FA6C
:1035E000A0EB0A0064284ED8DBF80000C005F5D532
:1035F000E06801280AD008B1052813D0286A20F015
:1036000001002862286A20F0040002E0286A40F0E5
:1036100001002862E06841F2883B98B1FFF746FA62
:1036200082460BE0286A40F004002862EEE700BF03
:10363000FFF73CFAA0EB0A0159455AD8286A8007DF
:10364000F6D50CE0FFF732FA824605E0FFF72EFAD6
:10365000A0EB0A0159454CD8286A8007F6D41FB15F
:10366000E86920F08050E861E06988B36968C1F3D7
:103670008101022944D00228C6F8608004D0FFF7F7
:1036800015FA044638E034E0FFF710FA074604E084
:10369000FFF70CFAC01B02282BD828688001F7D44A
:1036A000206AB0F5803F05D16868A16820F4003039
:1036B00008436860D4E908010843696821F474117B
:1036C00008436860C6F86090FFF7F0F9044606E02A
:1036D00025E000BFFFF7EAF9001B022809D8286897
:1036E0008001F7D51BE000BFFFF7E0F9001B0228BF
:1036F00002D90320BDE8F88F28688001F4D40EE0D9
:103700000128F7D06868226A00F48031914204D120
:10371000616A00F47010884201D00120EAE70020BD
:10372000E8E70000001002400000424280044242EC
:103730000C0000200070004070B5040009D0606AE1
:10374000002540B125616561A56294F8510040B142
:103750000CE0012070BD6068B0F5827FF4D0E561B7
:10376000F2E784F85050204600F040F8022084F838
:1037700051002068016821F040010160A088218982
:1037800000F4827001F404410843A18901F400614E
:103790000843217C01F002010843217D01F0010171
:1037A0000843218B01F400710843217F01F03801A7
:1037B000084394F8201001F080010843218D01F4A2
:1037C0000051084321680860A069042101EA104003
:1037D000216848602068C16921F40061C1616565A4
:1037E000012084F85100002070BD000030B585B084
:1037F00000240094019402940394006814498842C0
:1038000023D11448816941F480518161816901F4B7
:1038100080510491816941F00401816180690E4DFC
:1038200000F004000490A0200090022001900320EA
:10383000039069462846FFF73FF84020CDE9000491
:10384000694628460294FFF737F805B030BD0000FE
:103850000030014000100240000801402DE9FF4FF8
:1038600081B01D46934604464FF001090E9EFFF7B6
:103870001DF9074694F851006168012806D0B1F59A
:10388000827F3CD1A168C9BB042838D102980028A6
:1038900071D0BBF1000FFBD0002DF9D094F850008F
:1038A00001282CD04FF0010A84F850A094F8510060
:1038B000042802D0052084F851004FF00008C4F815
:1038C0005480C4F838B0E587A58702992163E5865E
:1038D000A586C4F84080C4F8448020680168490681
:1038E00003D4016841F040010160E068B0F5006F69
:1038F000606808D0F0B3012D49D081E0FFE70220D5
:1039000005B0BDE8F08F08B1012D39D1206B2168D9
:103910000088C860206B801C2063E08E401EE0861B
:103920002EE02068816889070FD5E18E69B1B9F171
:10393000010F0AD1216B0988C160206B801C2063B4
:10394000E08E401EE0864FF0000920688168C907BC
:103950000CD0E18F51B1C068A16B0880A06B801CB6
:10396000A063E08F401EE0874FF00109FFF79EF84B
:10397000C01B01E00BE067E0B04201D3701C50D1E6
:10398000E08E0028CDD1E08F0028CAD13EE0206B28
:10399000216800780873206B401C2063E08E401E75
:1039A000E0862DE02068816889070FD5E18E69B136
:1039B000B9F1010F0AD1216B09780173206B401C0A
:1039C0002063E08E401EE0864FF000092068816889
:1039D000C9070CD0E18F51B1C068A16B0870A06B12
:1039E000401CA063E08F401EE0874FF00109FFF705
:1039F0005DF8C01BB04202D3701C01D011E086B14B
:103A0000E08E0028CED1E08F0028CBD13A46314657
:103A1000204600F05EFD50B12020606584F85080A3
:103A200012E084F851A084F85080032068E7A06871
:103A300018B92068C1688068009084F851A084F8A3
:103A40005080606D0028F1D0012059E710B5401E6C
:103A5000B0F1807F01D3012010BD4FF0E024606100
:103A60000F21601700F02FFF0020A06107202061C8
:103A7000002010BD704770B5044620680C3050E837
:103A8000001F21F4907140E80012002AF5D120684F
:103A9000143050E8001F21F0010140E80012002A14
:103AA000F5D1206B012809D120680C3050E8001FA7
:103AB00021F0100140E80012002AF5D12068406989
:103AC0004FF00005400615D52068143050E8001F5F
:103AD00021F0400140E80012002AF5D1E06B48B126
:103AE0004563E06BFEF7DBFC20B1E06BFEF746FDC3
:103AF000202806D0E585202084F842002563002098
:103B000070BD10206064032070BD70B5044620684D
:103B10000C3050E8001F21F0C00140E80012002ADC
:103B2000F5D1206840691546000615D52068143087
:103B300050E8001F21F0800140E80012002AF5D172
:103B4000A06B48B14563A06BFEF7A9FC20B1A06B48
:103B5000FEF714FD202805D0E584202084F84100DC
:103B6000002070BD10206064032070BD10B502F00D
:103B700017FB00280CDB00EB0011064800EB41109E
:103B8000D0F81412491CC0F81412012180F8121246
:103B900010BD0000BC0B0020F8B5016804460868A1
:103BA000CA684B6910F00F0F4FF0000559D003F0B1
:103BB000010602F49077374365D0C10705D0D105DF
:103BC00003D5616C41F001016164410705D5D90756
:103BD00003D0616C41F002016164810705D5D9070A
:103BE00003D0616C41F004016164010707D502F064
:103BF0002001314303D0616C41F008016164616CC4
:103C000000293AD0800604D5900602D5204600F05F
:103C100046FD20684069616CC0F38010090700D43C
:103C200060B3204600F014FD20684069400621D5AD
:103C30002068143050E8001F21F0400140E80012D5
:103C4000002AF5D1E06BA8B16D494163E06BFEF746
:103C500049FC002811D0E06B416B01B0BDE8F04099
:103C6000084783060FD593060DD52046BDE8F840DA
:103C700000F015BD2046FFF779FFF8BD2046FFF79D
:103C800075FF6564F8BD266B2023012E7CD1C60626
:103C90007AD5D60678D508684868009048694FF00C
:103CA0000206400640D5E16B086840680004000C3D
:103CB000E8D0A28D8242E5D9E085886920282DD000
:103CC00020680C3050E8001F21F4807140E8001299
:103CD000002AF5D12068143050E8001F21F00101BE
:103CE00040E80012002AF5D12068143050E8001F87
:103CF00021F0400140E80012002AF5D184F842305A
:103D0000256320680C3050E8001F21F0100140E8C6
:103D10000012002AF5D1E06BFEF7C1FB6663A08DAF
:103D2000E18D401A81B22AE0A08DE18D401A81B266
:103D3000E08D0028A6D00029A4D022680C3252E8D9
:103D4000000F20F4907042E80007002FF5D12068A2
:103D5000143050E8002F22F0010240E80027002F25
:103D6000F5D184F84230256320680C3050E8002FEC
:103D700022F0100240E80023002BF5D166632046B4
:103D8000FFF778FEF8BDFFE705062BD5150629D508
:103D900094F841002128F5D1A068B0F5805F01D1E9
:103DA0002069B0B1206A411C216221680078486016
:103DB000E08C401E0004000CE084E3D12068C16860
:103DC00021F08001C1602068C16841F04001C160FC
:103DD000D8E7206A0088C0F308004860206A801C89
:103DE0002062E5E74006CDD55006CBD5CA6820460F
:103DF00022F04002CA6084F8413000F0EDF8C1E7DB
:103E00004146000870B5040004D094F84100002534
:103E100010B106E0012070BD84F84050204600F04B
:103E200023F8242084F841002068C16821F400515F
:103E3000C160204600F094FC2068016921F49041A3
:103E400001612068416921F02A0141612068C1684F
:103E500041F40051C1606564202084F8410084F879
:103E600042006563002070BD70B586B000240094E8
:103E70000194029403942E4E03682E4902200322DB
:103E80002D4DB34226D18B6943F480438B618B69FE
:103E900003F4804304938B6943F004038B618969C5
:103EA000039201F0040104910102CDE9001069467A
:103EB0002846FEF701FD2815CDE90004694628468D
:103EC0000294FEF7F9FC002211462520FFF7CEF8F8
:103ED000252028E0194EB34227D1CB6943F40033A3
:103EE000CB61CB6903F4003304938B6943F0040383
:103EF0008B618969039201F0040104910421CDE9E9
:103F0000001069462846FEF7D7FC0820CDE90004DA
:103F1000694628460294FEF7CFFC0022114626206F
:103F2000FFF7A4F82620FFF793F806B070BD000055
:103F300000380140001002400008014000440040E9
:103F400090F84230202B01D00220704721B11AB1E5
:103F50000023036300F060BC0120704770B5054684
:103F600002F01EF9002819DB00EB00110C4800EBF1
:103F70004114204694F8101103F08EF904F588716D
:103F800001222846FFF7DCFF002807D0012084F833
:103F90001202D4F81402401CC4F8140270BD0000D0
:103FA000BC0B002090F84130202B01D0022070473C
:103FB00079B172B101628284C284002141642121FD
:103FC00080F841100068C16841F08001C1600020A4
:103FD000704701207047000010B502F0E1F800289A
:103FE00007DB044A00EB001002EB4010002180F8D0
:103FF000111210BDBC0B0020FEE701684A69D243D4
:1040000052050FD46FF480624A61002140F8301FDE
:10401000202242738173026942F00402026101733B
:104020000120704700207047F8B50446C06A1E465C
:104030000D461746082807D0012805D010F5803F07
:1040400002D0206B122804D12068016841F48071ED
:104050000160134600224FF001112046009600F047
:104060005DF840B120680068C00502D54FF40070CB
:1040700020640320F8BD2069B0F5804F0ED00620E3
:10408000216800EAD51040F0F000086133463A4656
:104090000B49204600F08AF878B902E005F0FE00EE
:1040A00000E0E8B221680861054933463A46891FB5
:1040B000204600F07BF80028DCD00120F8BD00008D
:1040C0000800010070B516460D4604461EE0204665
:1040D000FFF793FF08B1012070BD681C16D0FEF7F2
:1040E000E5FC801BA84200D885B920684069C04320
:1040F00040070BD5002044F8300F20216173A073D6
:10410000216941F0200121612073E4E720684069C2
:10411000C0434007DBD4002070BD00002DE9F0470C
:10412000984617460D460446C1F30746DDF8209031
:104130002AE000BFB8F1FF3F26D0FEF7B7FCA0EBA6
:104140000901414502D8B8F1000F1DD12068012EA8
:1041500016D0806925EA00000004000C12D000206F
:10416000B84211D1002044F8300F20216173A073B0
:10417000216941F02001216120730120BDE8F08711
:104180004069E7E70120EBE72068012E0AD080694B
:1041900025EA00000004000C06D00020B842C9D077
:1041A0000020EBE74069F3E70120F7E72DE9F0474E
:1041B000984616460D4604464FF000094FF0200A77
:1041C000C1F3074723E020684069C043400515D488
:1041D0002068016841F40071016021686FF480601B
:1041E0004861C4F8309084F83DA084F83E90216C7A
:1041F00041F00401216484F83C9021E0701C06D059
:10420000FEF754FCA0EB0800B04203D816B1012F12
:104210001FD021E02068012F15D0806925EA000019
:104220000004000C18D000BF44F8309F84F80DA0A3
:1042300084F80E90216941F02001216184F80C90EE
:104240000120BDE8F087406925EA00000004000C69
:10425000EAD12068406901E02068806925EA000011
:104260000004000CAFD1ECE770B516460D460446CD
:104270001EE02046FFF7C1FE08B1012070BD681C9A
:1042800016D0FEF713FC801BA84200D885B9206821
:104290004069C04300060BD5002044F8300F2021B0
:1042A0006173A073216941F0200121612073E4E76B
:1042B00020684069C0430006DBD4002070BD0000C8
:1042C000FEB500241648009401941449029401603C
:1042D00089158160012505730475022606614FF476
:1042E00060214460C161FDF755FF08B1FDF73EFE56
:1042F00005200094CDE9015069460948FDF7A4FE68
:1043000008B1FDF733FECDE9005669460448FDF7D4
:104310009BFE002801D0FDF729FEFEBD00240140D0
:10432000D8000020094808B5416941F00101416108
:104330004069002200F00100009011460B20FEF7BA
:1043400095FEBDE808400B20FEF782BE001002403B
:1043500070B586B000241C48009401940294039424
:10436000816941F020018161816901F0200104919E
:10437000816941F004018161816901F004010491C6
:10438000816941F0080181618069104E00F00800E8
:104390000490012210213046FEF783FB10200125F6
:1043A000CDE900050320CDE9024069463046FEF71D
:1043B00083FA43F603408DE8310069460448FEF76E
:1043C0007BFA06B070BD00000010024000080140FA
:1043D000000C01400D4810B50B4901600C494160CB
:1043E00000214FF480428160C0E903124161816184
:1043F000C1610162FEF77AFB002803D0BDE81040DE
:10440000FDF7B4BD10BD0000005400404C01002079
:10441000801A0600104810B50E4901604FF48271F1
:10442000416000218160C1604FF400720161C0E908
:1044300005121022C0E90721416281620A21C1628E
:10444000FFF77AF9002803D0BDE81040FDF78EBDD4
:1044500010BD000000300140A00100200C4810B544
:104460000A4901604FF4E1314160002181600C2272
:10447000C160C0E904128161C161FFF7C3FC00287B
:1044800003D0BDE81040FDF771BD10BD00380140FC
:10449000F80100200C4810B50A4901604FF4E131E1
:1044A0004160002181600C22C160C0E90412816179
:1044B000C161FFF7A7FC002803D0BDE81040FDF75D
:1044C00055BD10BD0044004040020020FEE7FEE75D
:1044D0007047F8B515460E460B4600920446012279
:1044E000022100F011F840B9334600228021204615
:1044F000009500F009F8002804D0606D40F020001D
:1045000060650320F8BD00002DE9F8431E46914682
:1045100088460446089DFEF7C9FA401B351AFEF787
:10452000C5FA074625480068C0F3CB30684338E039
:10453000701C37D0FEF7BAFAC01BA84203D215B1DF
:10454000009860B32CE02068416821F0E0014160F0
:104550006068B0F5827F0BD1A068B0F5004F02D043
:10456000B0F5806F04D12068016821F0400101603E
:10457000A06AB0F5005F09D12068016821F40051FC
:1045800001602068016841F400510160012084F855
:104590005100002084F850000320BDE8F883002576
:1045A000401E00902068816838EA010004D0002194
:1045B0004945BDD10020F0E70121F9E70C000020BA
:1045C0007047FEF7EDBC30B593B028216846FCF784
:1045D000B2F814210AA8FCF7AEF8002501200F95C7
:1045E00010951195010412958DE8230004904FF465
:1045F000E010CDE90810022407946846FEF70CFF8E
:1046000008B172B6FEE70AA90F2081E831004FF425
:104610008060CDE90D0502210AA8FEF721FE08B150
:1046200072B6FEE74FF4004011900F940FA8FEF70A
:10463000A1FD002801D072B6FEE713B030BD70476F
:1046400010B5406A0021C185C184FFF78FFA10BD03
:1046500001680C3151E8002F22F4907241E80023E8
:10466000002BF5D10168143151E8002F22F001022E
:1046700041E80023002BF5D1016B012909D1016824
:104680000C3151E8002F22F0100241E80023002BEA
:10469000F5D1202180F8421000210163704708B550
:1046A00090F84210222901D0022008BD82684FF400
:1046B00080539A4201D1016921B1816A9A421BD08B
:1046C0004AB10AE00268816A5268C2F308020A80AD
:1046D000816A891C08E0026972B10268526802F0BE
:1046E0007F020A70816A491C8162C18D491E0904DA
:1046F000090CC18503D01BE002685268F1E701682C
:10470000CA6822F02002CA600168CA6822F4807276
:10471000CA6001684A6922F001024A61202180F8DA
:10472000421000214163026B012A03D0FFF716FCFF
:10473000002008BD016301680C3151E8002F22F010
:10474000100241E80023002BF5D101680A68D20667
:1047500002D50A6849680091818DFFF78BF9E7E778
:1047600070B5044600680169E26821F440511143C4
:1047700001612169A0680843616908432168CA682A
:1047800041F20C639A430243CA6020684169A269FE
:1047900021F44071114341611E492068884202D1D1
:1047A000FEF704FE01E0FEF7F1FD00EBC00101EBB6
:1047B0000012606864218000B2FBF0F3B3FBF1F3F8
:1047C0006FF018067343B2FBF0F5B2FBF0F605EBA1
:1047D0008305322303EB0515B5FBF1F5B6FBF1F6C6
:1047E00005F0F00505EB0615B2FBF0F6B2FBF0F0B4
:1047F000B0FBF1F06FF01802504306EB800003EBC2
:104800000010B0FBF1F0216800F00F002844886030
:1048100070BD00000038014081628285C2850021A0
:104820004164222180F84210016921B10168CA68FF
:1048300042F48072CA6001684A6942F001024A612A
:104840000068C16841F02001C1600020704700008D
:104850000148FFF7A1B90000F80100200148FFF767
:104860009BB9000040020020FEE7490050EAC12049
:1048700018BF04204A0D18BF40F0010040F2FF723B
:10488000B2EB515F08BF40F00200012808BF0520CD
:1048900070474100080218BF04200A0E18BF40F0FC
:1048A00001004FF07F4232EA010108BF40F00200F0
:1048B000012808BF052070476FEAD05010F0FF00B4
:1048C00000D0012070470907090E002804DB00F121
:1048D000E02080F80014704700F00F0000F1E020A5
:1048E00080F8141D7047012103F07DB902F0D0BD9E
:1048F0000021084602F034BE6FF05E01080703F0A5
:1049000072B900002DE9F04D0D4614464FF07F417D
:10491000B1EB440F9EBF4FF0FF312960BDE8F08D31
:104920004FF0004040EA0421C4F3C750783810F03B
:104930001F024A4B4FEA601CC2F120067B44C4F3BD
:10494000C750A0F178004FEA601003EB800053F8E5
:104950002C3008BFD0E901C612D0D0F804C0934073
:104960002CFA06F73B4387680CFA02FC27FA06F894
:10497000C06807FA02F2F0404CEA080C42EA00066E
:10498000A3FB0132ACFB01C0A6FB016101EB0C06ED
:104990008E4234BF4FF0010C4FF0000CC11861443F
:1049A000BCF1000F02D0814202D903E0814201D262
:1049B000012000E00020104400F120024FEA92188C
:1049C0008006CA0C40EA42304F03C5F8008002F06E
:1049D000A5FE8246384602F0B9FE6FF0120103F0E0
:1049E00002F90746304602F0B1FE6FF0250103F0F0
:1049F000FAF883463946504602F04AFD594602F01D
:104A000047FD00F500666FF30B065146304603F094
:104A10003FF8394603F03CF8594602F0A7FF104929
:104A200002F0A8FE07460F49304602F0A3FE3946C1
:104A300002F02EFD07460C49304602F09BFE394637
:104A400002F026FD14F0004F08BFBDE8F08DC8F15C
:104A5000805180F000402960BDE8F08D243E0000C8
:104A6000DB0FC92F22AAFD290000C92F30380A28E0
:104A700001D20120704700207047000010B56FEA96
:104A8000D05111F0FF0F07D00E4902F073FE0E490E
:104A9000884203DD08460DE0002010BD4FF047417D
:104AA000884201D9084602E010F1FF4F02D34FF0CF
:104AB0003F4101E04FF07C5102F0EAFC02F012FEAF
:104AC00000B210BD0000204100FEFF460149002059
:104AD00048707047100000200848417839B10078CC
:104AE00040B1012808D0032803D100F0F1B9012119
:104AF0004170704700F04ABE00F0E4B91000002099
:104B000004484178002904D00078022801D100F03F
:104B1000C5B97047100000200248002101704170A3
:104B2000704700001000002003480178491C01F084
:104B30000301017070470000100000200348017855
:104B4000C91C01F003010170704700001000002033
:104B50002DE9F04100F010FF00F0F2FA5B4D044641
:104B60002E1D687898B1287859A156F82020002089
:104B700001F052FC287870B3012847D0022865D094
:104B800003287AD0002068702870BDE8F08194F87E
:104B9000340002280FD001280FD04FA250A10020CE
:104BA00001F03AFC00240C27287856F8243084427F
:104BB00005D13E2204E04DA2F0E74EA2EEE720220E
:104BC00004EB440007EB80004BA101F025FC641CC2
:104BD000042CE9D3D9E7FFE7B4F90230B4F9002097
:104BE00047A10C2001F018FCE388A28847A11820F7
:104BF00001F012FC207A400601D548A200E049A24B
:104C000049A1242001F008FC49A15AE0607A4DA195
:104C100000F00303207A00F00F020C2001F0FCFBEF
:104C200094F84D00042800D90020284994F84C201D
:104C30001431521C51F8203046A1182001F0ECFB31
:104C400046A12420A26C01F0E7FB39E0B4F90C3056
:104C5000B4F90A2044A10C2001F0DEFBB4F90E20C7
:104C600044A1182001F0D8FB94F83400012805D0A5
:104C7000207AC00607D543A206E00BE001F074FDE0
:104C8000024641A101E027A244A1242001F0C4FB77
:104C900047A116E094F84E0008B14AA200E04BA2EA
:104CA0004CA10C2001F0B8FBD4E90E234CA1182034
:104CB00001F0B2FBD4E910234DA1242001F0ACFB9C
:104CC00050A1BDE8F041302001F0A6BB100000204B
:104CD0003C20257300000000434845434B00000082
:104CE000494E5643202F2025730000005245414471
:104CF0005900000043414C0025632025730000004B
:104D0000583A25356420593A25356400583A2534F7
:104D1000756D5620593A2534756D56004641554CEF
:104D2000540000004F4B0000414443202573000015
:104D30004B333A43656E746572204B343A4261637B
:104D40006B0000004B45593A25582053573A2558D7
:104D5000000000004B257520257300004576656E28
:104D600074733A256C750000503A25356420523A28
:104D700025356400593A2535642028302E312064C9
:104D800065672900455252005374696C6C212043B9
:104D9000414C2025752F313030000000494D552001
:104DA0002573202F20592072656C61746976650027
:104DB000486F6C64204B333A526563616C69627270
:104DC000617465004F4E4C494E45000057414954AF
:104DD0000000000041434B206C696E6B3A25730064
:104DE00054583A256C75204F4B3A256C75000000DD
:104DF00052657472793A256C752044726F703A2549
:104E00006C7500004B333A436C656172204B343A49
:104E10004261636B0000000070B550211B48FBF736
:104E20008AFC1A481A4C002580F834502570E57029
:104E3000A570256300F022FF00F0FEFC00F04EFD9F
:104E400000F000FF00F08EFB00F0C0FD114801F003
:104E500091FC0E481049503002F01FF90B48903079
:104E600001F059FAFFF758FEFDF720FE606120615E
:104E7000E060A06060600C206070FDF717FEC4E980
:104E80000650E562A5626562256270BD8802002059
:104E900038000020000048422B63000810B501F0E4
:104EA00041FC0648012180F834100021C1610162F3
:104EB0004162FDF7FBFD0249486110BD88020020F8
:104EC00038000020014900208864704788020020D3
:104ED00005480649426A0A62C26A4A62826A8A626E
:104EE000006BC86270470000D80200203800002024
:104EF0002DE9F041A8B0FDF7D9FD074600F052FFBB
:104F0000002000F03BFF8B4D0446A869844205D089
:104F100089490020C87500F0A5FEAC61402212A9A5
:104F2000002000F00BFF064600240DF148080FE0BA
:104F300018F8041023AB3A467F4801F079F928B1FC
:104F40007D483A4623A9403802F082F8641CA4B296
:104F5000B442EDD378483946403802F0A7F8754995
:104F60000A22091D384601F0D3F8734C903C70B307
:104F700000F0B6FC41E000BFBDF88800A4F84C008A
:104F8000A06C401CA06422980090A978EA78481C84
:104F900000F01F00904203D1286B401C286308E0FA
:104FA000654A203202EBC101BDF800200A804F6043
:104FB000A8709DF88900012815D19DF8880038B1A6
:104FC000012808D0022809D003280CD109E014E0F8
:104FD000FFF7B4FD07E0FFF7A7FD04E0FFF77CFD56
:104FE00001E0FFF773FD9DF88800022805D19DF8C8
:104FF0008900032801D1FFF783FD22A800F06AFC95
:105000000028B9D1384600F043FB384600F048FC90
:10501000484914220831384601F07AF810B1384670
:1050200001F010FA444E296A403E706A401AA063AB
:10503000F06A696A401AE063B06AA96A401A20649B
:10504000306BE96A401A606496F8390030B1706BD1
:10505000381AB0F57A7F01D8012000E0002084F8EA
:105060004E0001F00DF8334964221031384601F04A
:105070004FF8E8B3A878E978884242D1012000F0DF
:105080001FFFA8B3E06AFFF7F9FC8046A06AFFF7AC
:10509000F5FCD6E90A2394F83460B4F90E10CDE992
:1050A0001032CDE90E16B4F90C20B4F90A30CDE96E
:1050B0000A08CDE90C32B4F914000DF11808B4F95E
:1050C0001A30B4F91820B4F9161088E80F00237AC2
:1050D000B4F91210B4F91020607A03F00F030293B0
:1050E0000591CDE90302E188A088CDE9000100E047
:1050F00007E0B4F90230B4F900201049012000F0B3
:1051000001FE384600F078FC0A496A780C313846CE
:1051100000F0FEFF00280AD06878C0F1190068701E
:1051200000F04AFC08B1FFF713FD00F029FD28B09C
:10513000BDE8F0813800002018030020A088000896
:1051400000487047880200202DE9F04104464FF0E6
:105150000E4000EB4400B0F1506F204655D84FF0A0
:10516000FC41B1EB440F1CD224F000404FF07E51C3
:1051700002F0FCFB4FF0FF3102F035FD054601F077
:10518000BBFA14F0004F1DBF2F4F304E80F000408F
:105190002F4F08BF2F4E4FF0404102F0EBFA04466C
:1051A00005E000273E46014602F0E4FA05462A499A
:1051B000284602F0DFFA294902F06AF9294602F08E
:1051C000D9FA274902F064F9294602F0D3FA2549B1
:1051D00002F05EF9294602F0CDFA234902F058F9AF
:1051E00080462946204602F0C5FA414602F0C2FA3E
:1051F00005463146204602F04BF9294602F048F9AF
:105200003946BDE8F04102F043B94FF0E441B1EB5B
:10521000440F08D9FFF73DFB042808BFFFF76CFBDC
:105220002046BDE8F0814FF07F41B1EB440F03D23F
:10523000BDE8F041FFF757BB0120FBF7ABFABDE833
:10524000F041FFF755BB00000000C9BF22AAFDB91D
:105250000000C93F22AAFD3924FE1C3DC78AD83C64
:105260001E67383D1B93993DAFAA2A3E2DE9F047B2
:105270004FF0684202EB40030C460546B3F1654F20
:105280003CBF02EB4102B2F1654F80F0CD8000BF20
:10529000C0F3C752C1F3C753D21A1B2A06DD10F060
:1052A000004F14BF87488848BDE8F08712F11A0FF5
:1052B0002FDA11F0004F06D010F0004F0CBF8348DA
:1052C0008348BDE8F0872146284602F049F90646A2
:1052D000FFF7DFFA042808BFFFF70EFB2846FFF7A9
:1052E000D8FA05462046FFF7D4FA04463046FFF7C1
:1052F000D0FA042D18BF052D08D1042C18BF052C99
:1053000004D1002804BF0220FBF744FA3046BDE870
:10531000F0874200B2EB410F25D910F0004F19BFC2
:105320006C4F6D4E6D4F6E4E224685F00044154613
:105330000A4680F0004110460A1A5200B2F1807FFE
:105340003ED248406749DFF8A0A110F0004F18D0C6
:105350004FF03F48384602F09BFB07465146304627
:1053600002F096FB17E011F0004F04BF002637460D
:10537000E2D010F0004F19BF5C4F5D4E5D4F5E4EA6
:10538000DAE74FF07C58384602F082F8074651467B
:10539000304602F07DF806464146284602F0EAF91A
:1053A000214602F075F882462146404602F0E2F9B5
:1053B000294602F0DBFA514602F0D2F8044604E036
:1053C0002146284602F0CCF80446014602F0D2F904
:1053D00080464A4902F0CEF9494902F059F841465F
:1053E00002F0C8F9474902F053F8414602F0C2F909
:1053F000454902F04DF8414602F0BCF9434902F03C
:1054000047F805464146204602F0B4F9294602F025
:10541000B1F9314602F03CF8214602F039F839463C
:10542000BDE8F04702F034B84FF07F42B2EB400FD6
:1054300028BFB2EB410F03D2BDE8F047FFF756BAE1
:1054400040EA01035B0008BF44F0FF410AD0B2EB21
:10545000400F08BFB2EB410F06D125F0804024F089
:10546000804105460C4613E7B2EB400F12BF5FEADE
:10547000410345F0FF4004F000413FF409AFB2EBB7
:10548000410F12BF5FEA400205F0004044F0FF41C7
:105490003FF4FEAE4A0092EA40033FF5F9AE002A1F
:1054A000ACBF4FF09F464FF03E56314602F062F9D6
:1054B00005463146204602F05DF90446284621465D
:1054C000E6E60000DB0FC9BFDB0FC93FDB0F494039
:1054D000DB0F49C00000C9BF22AAFDB90000C93FC7
:1054E00022AAFD390060ED3EC30ACE37000049C054
:1054F00022AA7DBA0000494022AA7D3A2DAD65BDA1
:105500008FB8D53D0FB511BE61C84C3EA8AAAABE42
:10551000008840BA010401D5A0F5803000B2704780
:1055200038B5002501238DF800501A4669467520CC
:1055300001F0CEFE00280CD09DF8000070284FF03E
:10554000010006D0034C20706570FDF7AFFAA06033
:10555000002038BD8000002001480078704700001E
:10556000800000200D4910B53020C8610846FEF7C4
:10557000E3F80B4C30B102202070FDF797FAA060E1
:10558000002010BD04202070012060700020A07059
:10559000FDF78CFA6060A060012010BDA001002022
:1055A0008000002070B58AB004006DD0002626600F
:1055B000364D6660A6602878002865D101238DF8F5
:1055C00020601A4608A93A2001F082FE00284DD03A
:1055D0009DF82000C0074BD001230E2269463B20D6
:1055E00001F076FE002841D06846FFF791FFADF844
:1055F00010006E46B01CFFF78BFFADF81200301D97
:10560000FFF786FFADF8140002A8FFF781FFADF8A1
:1056100018000DF10A00FFF77BFFADF81A0003A890
:10562000FFF776FFADF81C00012104A800F0E1FDB2
:105630002080022104A800F0DCFD6080032104A882
:1056400000F0D7FDA080012106A800F0D2FDE08087
:10565000022106A800F0CDFD2081032106A800F05C
:10566000C8FD6081FDF722FA286101200AB070BDF3
:10567000FDF71CFA2969401AC82805D902202870AC
:105680006E70FDF713FAA8600020EFE7800000209D
:105690002DE9FC413B4D04464FF47A712878A0B1C6
:1056A0006878D8B1012821D00026022833D00328F9
:1056B00037D0042807D16868201A642803D32E70D5
:1056C0006E702C61EC60BDE8FC81E868201A8842AD
:1056D000F9D3EC60BDE8FC41FFF722BFA868201AAF
:1056E0008842F0D3BDE8FC41FFF73CBF6868201A50
:1056F0006428E8D3FFF714FF0028E4D080208DF859
:1057000000000023012269466B2001F0E1FD002822
:10571000D9D0022033E06868201A6428D3D303204C
:105720006870A8780A2829D2174F002307EB400198
:10573000012249788DF8001017F81000694601F031
:10574000C7FD0028BFD08DF80460A87801231A4651
:1057500017F8100001A901F0BBFD0028B3D09DF897
:1057600004009DF80010884204D0012028706E705B
:10577000AC60A8E7A878401CA870A4E70420687073
:105780006C60A0E7800000209E7C00081CB501A989
:10579000684601F0F1FD002814D0BDF800204FF458
:1057A000FA718A420ED94FF42F639A420AD2BDF899
:1057B0000400884206D9984204D20349CA8008816D
:1057C0000120C8701CBD0000940000207CB50400BE
:1057D00015D0694601A801F0CFFD164D40B900F083
:1057E00051F840B16889ADF80400A889ADF800000F
:1057F000E87828B106E000202060606020817CBD50
:10580000FFF7C4FFBDF80400A080BDF80010E180E0
:10581000E98801F04DFB20802989BDF8000001F0E6
:1058200047FB6080218801B910B1002020727CBD47
:105830000120FBE79400002070B50F4C0020206190
:105840006070A070E0702071FDF730F96061002297
:1058500002210B20FDF70AFC0848FCF789FB012513
:1058600028B92A0206490548FCF768FD08B16570A9
:1058700070BDA57070BD000094000020D80000200D
:10588000380400200548817829B1417819B9007998
:1058900008B10120704700207047000094000020EC
:1058A0000A4910B58A784B789A430ED14A69821A10
:1058B000B2F57A7F09D348610548FCF7C5FD002899
:1058C00003D1BDE81040FFF7B7BF10BD9400002022
:1058D000D800002001F0A4BB01F08CBB01F07ABB22
:1058E0007CB50E4801680E4A00246B46D2E90002DE
:1058F000CDE900022046012233F810500D4203D1B9
:1059000002FA00F5EDB22C43401C0428F4D3FDF755
:10591000CDF80146204601F0F3FA7CBD080C0140A9
:10592000B47C00087FB5114CA07800281DD100F090
:1059300017FC0F48FDF7C0F8002816D1C021112030
:10594000CDE9001000250320CDE90250094E0122C7
:105950003046FDF7A6F869463046FCF7ADFF01205A
:10596000A070E570FDF7A2F8E0607FBDAC000020FC
:105970004C010020000C01404FF480610148FAF70F
:10598000B8BE00003806002030B5802810D240296B
:105990000ED201F007040123064DA340C90805EB10
:1059A000C111002A0A5C01D01A4300E09A430A544C
:1059B00030BD0000380600200348007808B1002000
:1059C0007047012070470000AC00002010B5FFF7C1
:1059D000D3FF054C002020706070A070FDF766F8C2
:1059E000A0F56170A06010BDAC00002001484078B7
:1059F00070470000AC00002010B5204C88B0A178A2
:105A000019B100F097FC08B010BD61780029FAD1F7
:105A1000A168411AB1F57A7FF5D3A06018480068F3
:105A20008069C043800725D580211648FDF734F8EA
:105A300000B37821A180022301221148FDF71AF951
:105A400040B17A21A180022301220D48FDF712F90D
:105A50000028D8D11C220CA16846FAF718FE1A219A
:105A6000684601F0CDFC0028CDD0012060700020F8
:105A70002070C8E7FFF756FFC5E70000AC00002024
:105A80004C010020000C014000AED580A83FD3009F
:105A9000408D142002A1C8DA12817FD9F1DB40A425
:105AA000A6AF00002DE9F04F8146A2F12000DDF8FD
:105AB00024B01D4688465F2800D33F220C2D01D01C
:105AC000102D39D16F080C2D07D01C4800EB0210A7
:105AD000A0F50070824600262CE0194902EB420036
